:100000000C9491010C94B9010C94B9010C94B901B0
:100010000C94B9010C94B9010C94B9010C94B90178
:100020000C94B9010C94B9010C94B9010C94CE054F
:100030000C94B9010C94B9010C94B9010C94B90158
:100040000C9484050C94B9010C94B9010C94B90179
:100050000C94B9010C94B9010C94B9010C94B90138
:100060000C94B9010C94B9010101FF030101F703DC
:1000700005003801680100001613780016131400FB
:1000800015102000152010002017000000000007A8
:100090000000001FC000003FE000007FF00001F200
:1000A0007C00024012000258D20001D8DC0000623D
:1000B000300000707000003FE000000F8000000082
:1000C00000000000000000000000066F39E00FE6AD
:1000D00063601ACCC240318D8240631986C0F7BC80
:1000E000F7800000000053706163652D496D7061F9
:1000F0006374006C00680003053F213F1208120A78
:10010000100A0E1C0E0C1E0C141A14161F161E13A9
:100110001E1E1B1E1E1F1E3F213F3A2F3A173D1762
:100120003F213F181F02040A041F0E04040E1F0A79
:100130001F0A0E0E1F04110E2E252E2F2A2E2629E1
:1001400029021F02081F08150E04040E150E1515AE
:100150001B151B040604040C040000000017000318
:1001600000031F0A1F16371A1904130A153A000351
:1001700000000E11110E000A040A040E04003000E3
:100180000404040010001804031F111F121F101D87
:10019000151711151F07041F17151D1F151D010128
:1001A0001F1F151F17151F000A00003200040A1137
:1001B0000A0A0A110A040115020E11171E051E1F54
:1001C000150A0E110A1F110E1F15111F05010E1120
:1001D0001D1F041F111F1108100F1F041B1F1010DB
:1001E0001F061F1E040F0E110E1F09060E112E1FD3
:1001F000051A121509011F011F101F0F180F1F0CE0
:100200001F1B041B031C03191513001F11030418E3
:10021000111F000201022020200001020C121E1FEB
:10022000120C0C12120C121F0C1A14041E05242A94
:100230001E1F021C141D1020201D1F0814111F104A
:100240001E041E1E021C0C120C3E0A040C123E1E42
:10025000040214160A020F120E101E0E100E1E08B3
:100260001E120C1226281E322A26041E21001F00F0
:10027000211E040102013F213F47616D652050614D
:1002800075736564001007C0006E002D005EC02D00
:10029000006E00C00000000000240027002A0000BB
:1002A000000000250028002B00F6E8DBCFC3B8AE25
:1002B000A49B928A827B746E68625C57524E494559
:1002C000413E3A3734312E2C2927252321172B166E
:1002D000201314000000000023002600290004045D
:1002E00004040404040402020202020203030303DE
:1002F00003030102040810204080010204081020BA
:1003000001020408102000000008000201000003A0
:100310000407000000000000000045006801000024
:100320009D1011241FBECFEFD8E0DEBFCDBF11E07E
:10033000A0E0B1E0ECEFF3E202C005900D92AA312B
:10034000B107D9F723E0AAE1B1E001C01D92A23BB9
:10035000B207E1F711E0C1E9D1E004C02197FE0145
:100360000E94F111C039D107C9F70E94990D0C9470
:10037000FC110C9400002F923F925F926F927F923B
:100380008F929F92AF92BF92CF92DF92EF92FF92A5
:100390000F931F93CF93DF93EC01F901E490319613
:1003A000849164350CF019C10E2C000CFF08062F47
:1003B000062E000C110BF701E00FF11F1E161F0691
:1003C0000CF00BC140330CF008C1A82FC42E042E32
:1003D000000CDD085601A80EB11C87FDBA941A1452
:1003E0001B040CF0FAC02E5F3F4F570197E0A90E97
:1003F000B11CB7FE04C05701BEE0AB0EB11CB3E0A8
:10040000B594A794BA95E1F747FF0AC0A42FA80FA7
:10041000AC9CC001AD9C900D1124281B390B40E011
:100420008A2F0A2E000C990B840F911D47FD9A9577
:10043000C19714F0A0E3A41BF8A067FD60E0E535C8
:10044000F10514F0E4E5F0E09E2FCC85C427C62E1C
:10045000062E000CDD08F601E01BF10B8F014F01A9
:10046000F7E08F229924E0E8F0E002C0F595E795E7
:100470008A94E2F77E2F17FF02C0095F1F4FF3E057
:1004800015950795FA95E1F7200F311F542F5770F6
:1004900081E001C0880F5A95EAF745954595459545
:1004A000F601B4E54B02E00DF11D1124AF01485DEA
:1004B0005E4FD0E02A2EAA0F3308EE24E394BB242B
:1004C000ED2FF0E0E215F3050CF087C0F901549030
:1004D000F1E0FF121AC0962E8A01E72F69019916E2
:1004E00008F072C08E2E852021F0D8018C90882AC9
:1004F0008C92E69531F4BFEFCB1ADB0AF6015490EB
:10050000E0E893940F5F1F4FEACFF1101CC0782EE4
:100510007094962E8A01E72F6901991608F054C04D
:100520008E2E852021F0D8018C9087208C92E69524
:1005300031F4BFEFCB1ADB0AF6015490E0E8939454
:100540000F5F1F4FEACFF3E0FF1629F0962E8A01C6
:10055000E72F690137C0682E6094862E8A01972E96
:1005600069018916D8F4E92DE52159F0D801EC91FB
:10057000782C7C2670FE02C0E82B02C0E621D80150
:10058000EC93969439F4BFEFCB1ADB0AF601549042
:10059000E0E89E2E83940F5F1F4FE3CFCE2514C05B
:1005A0008E2E852021F0D8018C9088268C92E6959D
:1005B00031F4BFEFCB1ADB0AF6015490E0E89394D4
:1005C0000F5F1F4F991660F3880F19F44C5A5F4F55
:1005D00081E0DF5F2A0D3B1D73CFDF91CF911F912B
:1005E0000F91FF90EF90DF90CF90BF90AF909F90D2
:1005F0008F907F906F905F903F902F900895CF9253
:10060000DF92EF92FF920F931F93CF93DF936C01D2
:100610007A018B01C0E0D0E0CE15DF0581F0D80172
:100620006D918D01D601ED91FC910190F081E02D4D
:10063000C6010995892B11F02196EECF7E01C701E5
:10064000DF91CF911F910F91FF90EF90DF90CF90AE
:100650000895089580E090E00895CF93DF93BC0162
:1006600086E793E00E944F09EC0142E050E066E12A
:1006700071E086E793E00E94FF028C0F9D1FDF91DF
:10068000CF9108950E94F7118F929F92AF92BF92DF
:10069000FF920F931F93CF93DF938091980388234A
:1006A00009F4F3C081E080937E0310927D031092E1
:1006B0007C0310924003809396038093970360E03D
:1006C0008DE493E00E945A0810924E0319EEC0E7A1
:1006D000D0E001E089E0F82E0E94F6098823E1F3DA
:1006E0008091990390919A03A0919B03B0919C03F0
:1006F0004E97A105B105B9F460E08DE493E00E9446
:100700005A08D0935B03C0935A031092600310926F
:100710005F0300934E03F0926303109266031092FE
:10072000680310926A038091990390919A03A091B3
:100730009B03B0919C0383329105A105B10510F490
:100740001F5F04C0CC97A105B10548F428E830E04C
:10075000412F69E186E793E00E94BB01BDCF66EEC1
:1007600070E086E793E00E944F0980917A03982F0A
:10077000990F890F81958D5A80937F0380917B0318
:10078000982F990F890F8195835D809380038091C5
:10079000990384FF03C084E890E002C080E890E001
:1007A0000E942D0380917A03982F990F890F8195CC
:1007B0008D5A80937F03809180038F5F80938003A5
:1007C00080915203882319F08CE790E002C088E7FB
:1007D00090E00E942D0380913E038130B1F480911E
:1007E00052038F5F6091530387FD09C0082E000CF0
:1007F000990B70E06F5F7F4F0E94C911682F609363
:1008000052038DE493E00E94DF0880913D03813024
:10081000B9F080919803482F50E060E070E080903C
:10082000990390909A03A0909B03B0909C03841628
:100830009506A606B70608F44FCF8F3F09F44CCFB4
:100840008FEF8093980360E08DE493E00E945A0854
:1008500010924E0360E08DE493E00E945A0880E716
:1008600090E090935B0380935A0310926003109280
:100870005F0381E080934E0389E0809363031092CD
:1008800066031092680310926A0380913D038130E1
:1008900011F480931C01DF91CF911F910F91FF9074
:1008A000BF90AF909F908F900895833081F028F48F
:1008B000813099F08230A1F008958730A9F0883016
:1008C000B9F08430D1F4809180008F7D03C0809195
:1008D00080008F7780938000089584B58F7702C061
:1008E00084B58F7D84BD08958091B0008F7703C05B
:1008F0008091B0008F7D8093B00008951F93CF93B7
:10090000DF93282F30E0F901EA5FFC4F8491F90171
:10091000EE50FD4FD491F901E252FD4FC491CC232A
:10092000C1F0162F81110E945504EC2FF0E0EE0F5C
:10093000FF1FE156FD4FA591B4919FB7F894111197
:1009400004C08C91D095D82302C0EC91DE2BDC93AF
:100950009FBFDF91CF911F910895CF93DF9390E0D8
:10096000FC01EE50FD4F2491FC01E252FD4F8491B9
:10097000882361F190E0880F991FFC01EB56FD4F31
:10098000C591D491FC01E156FD4FA591B49161113F
:1009900009C09FB7F8948881209582238883EC91C1
:1009A0002E230BC0623061F49FB7F8948881322FF8
:1009B000309583238883EC912E2B2C939FBF06C008
:1009C0008FB7F894E8812E2B28838FBFDF91CF91CA
:1009D00008951F93CF93DF93182FEB0161E00E94DE
:1009E000AD04209711F460E004C0CF3FD10539F485
:1009F00061E0812FDF91CF911F910C947E04E12F54
:100A0000F0E0EA5FFC4FE491E330F9F048F4E130C4
:100A1000B9F0E230A1F584B5806284BDC8BD34C0B0
:100A2000E730E9F0E83019F1E43049F580918000D1
:100A3000806280938000D0938B00C0938A0024C092
:100A400084B5806884BDC7BD1FC080918000806868
:100A500080938000D0938900C093880015C0809156
:100A6000B00080688093B000C093B3000DC0809147
:100A7000B00080628093B000C093B40005C0C0385D
:100A8000D1050CF0B5CFAFCFDF91CF911F91089575
:100A90008E3008F08E508770806480937C00809147
:100AA0007A00806480937A0080917A0086FDFCCF82
:100AB000809178002091790090E0922B08953FB7C3
:100AC000F89480911E0190911F01A0912001B09196
:100AD000210126B5A89B05C02F3F19F00196A11D45
:100AE000B11D3FBFBA2FA92F982F8827820F911DC4
:100AF000A11DB11DBC01CD0142E0660F771F881F0B
:100B0000991F4A95D1F708951F920F920FB60F9231
:100B100011242F933F938F939F93AF93BF93809113
:100B2000240190912501A0912601B09127013091D7
:100B30001D0123E0230F2D3720F40196A11DB11DC7
:100B400005C026E8230F0296A11DB11D20931D01AB
:100B50008093240190932501A0932601B09327014F
:100B600080911E0190911F01A0912001B09121015F
:100B70000196A11DB11D80931E0190931F01A093AA
:100B80002001B0932101BF91AF919F918F913F912F
:100B90002F910F900FBE0F901F9018951F920F92DC
:100BA0000FB60F9211242F936F937F938F939F9380
:100BB0006091B003662359F180911A018F5F809391
:100BC0001A0190912201891710F12091AF0381E061
:100BD00028272093AF0310921A01809123018823C4
:100BE00069F08091000193E4899F802D1124895B35
:100BF000809300010E94BD119093B103222329F03C
:100C00008091B1038093B40002C080E0FBCF9F913C
:100C10008F917F916F912F910F900FBE0F901F902A
:100C20001895FC01643508F053C0403308F050C0FB
:100C300090A1742F759575957595262F062E000C2D
:100C4000330B542F57709230A1F4F90184E57802E8
:100C5000E00DF11D1124E85DFE4F808190E0052E2E
:100C600002C0959587950A94E2F78095982F917028
:100C70000AC0933041F484858170462740954170C5
:100C8000841303C014C0911112C084E57802200DB2
:100C9000311D1124F901E85DFE4F81E090E001C0B3
:100CA000880F5A95EAF780959081892310C084E5D2
:100CB0007802200D311D1124F901E85DFE4F81E01D
:100CC00090E001C0880F5A95EAF79081892B8083C4
:100CD0000895CF92DF92EF92FF920F931F93CF93DD
:100CE000DF937C01D62EC22EC42F002E000C110BD8
:100CF000040F111D47FD1A958C2F0C2E000C990B1B
:100D0000801791076CF4D0E0DC1544F46D2D6D0F65
:100D10004C2FC7010E941106DF5FF6CFCF5FECCFEB
:100D2000DF91CF911F910F91FF90EF90DF90CF90C7
:100D300008956F927F928F929F92AF92BF92CF92BF
:100D4000DF92EF92FF920F931F93CF93DF93EC010B
:100D50006A3011F42885A3C06D3009F4A7C0A984B6
:100D600083E58A150CF485C0BA848FE28B150CF4E8
:100D700080C0D8848C8190E00197D89E9001D99E44
:100D8000300D1124C9018A0D911DA7FC9A951816E2
:100D900019060CF06EC02D818B2D0B2C000C990BBD
:100DA000D29E800D911D1124181619060CF061C0F9
:100DB00088A09A2CCA2CE62EF12CEC2DEA190E2EC6
:100DC000000CFF0B8C8190E0E817F9070CF050C085
:100DD0000197E817F90779F0E89E9001E99E300D38
:100DE000F89E300D1124E20FF31F8E8D9F8DE80FBA
:100DF000F91F149101C010E06B2C7B2C272D2B19AF
:100E0000022E000C330B8D8190E0281739076CF50A
:100E100010FF11C081E0D81206C0472D6C2DCE0105
:100E20000E9411061EC00D2D2D2D462D692DCE01BF
:100E30000E94690616C089A198A1891791F088A31C
:100E400081E0D81206C0472D6C2DCE010E941106FC
:100E500007C00D2D2D2D462D692DCE010E9469064E
:100E600088A2169573946D0CC9CFC3949D0CA5CF21
:100E700088A228853C818985239F800D112489873C
:100E80009F81992399F0082E000C990B44E550E0BE
:100E9000239F401951091124481759073CF49D819B
:100EA0008A85299F800D11248A87198681E090E028
:100EB000DF91CF911F910F91FF90EF90DF90CF9036
:100EC000BF90AF909F908F907F906F900895AF925A
:100ED000BF92CF92DF92EF92FF920F931F93CF9327
:100EE000DF93182F062FC1E0D3E08AEFD82E9EEFB4
:100EF000E92E842F8470C82E842F8270B82E842F00
:100F00008870A82E4170F42E8C2F880F8F5FE80E0A
:100F1000CC2081F0402F4D0F612F6C0F86E793E0BE
:100F20000E941106402F4C0F6D2F610F86E793E052
:100F30000E941106BB2081F0402F4D1B612F6C0FCA
:100F400086E793E00E941106402F4C1B6D2F610F26
:100F500086E793E00E941106AA2081F0402F4C0FF3
:100F6000612F6D1B86E793E00E941106402F4D0F05
:100F7000612F6C1B86E793E00E941106F1100AC0F6
:100F8000CD17CCF4E7FC04C0D150D394D394ED0C2E
:100F9000CF5FBACF402F4C1B612F6D1B86E793E0CC
:100FA0000E941106402F4D1B612F6C1B86E793E0BA
:100FB0000E941106E5CFDF91CF911F910F91FF9015
:100FC000EF90DF90CF90BF90AF9008950F931F9355
:100FD000CF93DF93D82F162F042FC0E0C0174CF407
:100FE000412F4C0F6D2F86E793E00E941106CF5FD3
:100FF000F5CFDF91CF911F910F9108959F92AF92FE
:10100000BF92CF92DF92EF92FF920F931F93CF93F5
:10101000DF93F82EE62EB22E13E0120FD0E0C3E0DD
:101020008AEFC82E0EEF842F8170982EAA24A394E5
:10103000A20E4270D42EDF5F812F8B19080F9920EA
:1010400081F04C2F440F4A0D6E2D6C1B8D2F8F0D90
:101050000E94E607412F6E2D6D1B8C2F8F0D0E9475
:10106000E607D1100AC0DC17CCF407FD04C0C1505C
:10107000C394C3940C0D1E5FDECF4C2F440F4A0D5A
:101080006E2D6C1B8F2D8D1B0E94E607412F6E2D40
:101090006D1B8F2D8C1B0E94E607E5CFDF91CF9152
:1010A0001F910F91FF90EF90DF90CF90BF90AF9086
:1010B0009F90089570E0FC01E60FF71F178A158ACC
:1010C0009B01220F331FDC01A20FB31F94961C92C9
:1010D0001E929397108EFB01EF54FC4F1082FB0180
:1010E000E055FC4F1082FB01E155FC4F108210923D
:1010F000B4000895CF92DF92EF92FF920F931F9367
:10110000CF93DF93082F10E0E801C85DDC4F9DA16D
:10111000992309F44BC09EA1911148C09EA5980146
:10112000220F331FA901485D5C4F7A01FA0134A5F3
:1011300025A5E32FF22FE90FF11DE90FF11D2591F0
:1011400034912F3FFFEF3F0711F41DA22FC039ABA1
:10115000F801EE0FFF1FEE5CFC4F3327220F331F09
:1011600005A0F6A1E02DE20FF31FC590D4908111E8
:101170001AC060E08DE493E00E945A08F701D3AAF8
:10118000C2AA000F111FF801E65CFC4F16A215A2BF
:1011900081E08EA389E08BAF1EAEFE01E05CFF4FC5
:1011A0001082329610828EA58F5F8EA7DF91CF912D
:1011B0001F910F91FF90EF90DF90CF900895CF9304
:1011C000DF93EC0160E00E945A088AE193E09E8779
:1011D0008D871B8A1A8A81E0898389E08E8B198E1C
:1011E0001B8E1D8EDF91CF910895CF93C82FF89459
:1011F00060E0809185030E947E048091860318162A
:101200001CF460E00E947E04CEBD00000DB407FE19
:10121000FDCF8EB58091860318161CF461E00E9404
:101220007E047894CF9108950F931F93CF9380916C
:1012300082038F5F8093820308E211E0C0E08C2F6D
:1012400080640E94F50880E80E94F50861E08091C2
:1012500085030E947E048091860318161CF460E0CA
:101260000E947E04F80184E591919EBD00000DB4BA
:1012700007FEFDCF9EB58150B9F780918603181601
:101280001CF461E00E947E04CF5F0C5A1F4FC630F1
:10129000B1F680E4CF911F910F910C94F508EF9275
:1012A000FF920F931F93CF93DF938C017B01C0E0DC
:1012B000D0E0F701EC0FFD1F6491662339F0C801FF
:1012C0000E949906892B11F02196F3CFCE01DF9170
:1012D000CF911F910F91FF90EF90089570E0DB0187
:1012E000AA0FBB1FA85DBC4FD4962C91D497D5965E
:1012F0009C91D597E22FF92FE80FF11DE80FF11D12
:10130000259134915F9696963C932E939597F9018B
:101310008591949190915103989F802D1124685D3F
:101320007C4FFB01EA5BFF4F8083F901A591B491EB
:101330004B2F50E0E82FF0E04E175F0720F4F90143
:1013400025913491832FFB01E95BFF4F989F802DFE
:10135000112480830895DF92EF92FF920F931F93E1
:10136000CF93DF93C8E2D3E00FE213E0EE24EA94D8
:1013700062E08A850E94AD042A8530E0F901EA5FC7
:10138000FC4F8491F901EE50FD4FF490F901E252C7
:10139000FD4FD490DD2071F081110E945504ED2D98
:1013A000F0E0EE0FFF1FEC52FD4FA591B491EC91D0
:1013B000FE2299F489898F5F898B60E08A850E947B
:1013C000AD0421960C171D0799F6DF91CF911F915F
:1013D0000F91FF90EF90DF9008958989882389F31A
:1013E0008F3F11F4198AE9CFE98AE7CF4F925F92D4
:1013F0006F927F928F929F92AF92BF92CF92DF9225
:10140000EF92FF920F931F93CF93DF9300D000D002
:101410001F92CDB7DEB74091A8035091A903609108
:10142000AA037091AB032FB7F89480912401909197
:101430002501A0912601B09127012FBF481B590B10
:101440006A0B7B0B8091A70390E0A0E0B0E00091D5
:10145000A3031091A4032091A5033091A603841740
:101460009507A607B70730F40115110521053105C9
:1014700009F09CC2012B022B032B09F095C280912D
:101480003F0381508E3F18F580913E038130F9F47F
:10149000809152038F5F6091530387FD09C0082E2E
:1014A000000C990B70E06F5F7F4F0E94C911682F8D
:1014B000609352038DEC92E09093AD038093AC0364
:1014C00088E48093AE038DE493E00E94DF0880E01F
:1014D0000E947A0880914E03882309F4ADC0809160
:1014E00062038111A9C080915A0390915B03E0913E
:1014F0005F03F0916003EE0FFF1FE80FF91F2591C6
:1015000034912115310541F520915E03222331F0FC
:101510001092600310925F03FC0115C010924E03FD
:1015200080914D03882391F080E00E947A08E09139
:101530005F03F0916003EE0FFF1F80915A039091BB
:101540005B03E80FF91F2591349106C060E08DE43C
:1015500093E00E945A0870C0A90156954795569588
:10156000479520FF49C0C901A6E096958795AA95A1
:10157000E1F78F71932F96959695969590514F70B0
:101580004230E9F040F44423A1F0413059F560E0E5
:101590000E946E0927C04330E1F0443019F52091D4
:1015A0005103289F802D112480936A0390936B032D
:1015B00019C08B3008F08AE08093630313C0209138
:1015C0005103289F802D1124809366039093670315
:1015D00009C020915103289F802D11248093680316
:1015E00090936903E0915F03F09160033196F0936B
:1015F0006003E0935F039FCF4F734093610380913B
:101600005103839F802D11248093620310927203F3
:10161000109271031092700381E0809364038093B1
:10162000AF031092650380915F0390916003019670
:101630009093600380935F0380916403882309F48F
:10164000F3C080916203811106C060E08DE493E0F5
:101650000E945A08E9C0815080936203809172030E
:10166000811148C020917003309171032F5F3F4F6B
:10167000C901880F991FE0916C03F0916D03E80F89
:10168000F91F65917491862F877080937303AB0166
:10169000E3E056954795EA95E1F7CA019695879557
:1016A000972F96959695909374038F73909151030D
:1016B000899F802D112480937203417040932301F0
:1016C000309371032093700380916E0390E028178C
:1016D000390780F020916F03222339F0821B910992
:1016E000909371038093700305C060E08DE493E0F4
:1016F0000E945A08809172038150809372038091F6
:10170000650321E0280F2093650340916103309128
:101710007403340F80915903380F30934F03609155
:101720006803662371F070E0822F022E000C990B83
:101730000E94C91180916903869F300D1124309356
:101740004F0380914F0390E0849664E270E00E9422
:10175000C91180934F03309163033093500360911C
:101760006603662381F0062E000C770B822F022E73
:10177000000C990B0E94C91180916703869F300D60
:1017800011243093500360916A036623A1F0822FE5
:10179000220F990B70E00E94C911CB0162E070E04A
:1017A0000E94C91120916B0390915003289F900DC6
:1017B0001124909350034F3351F0809150038A309D
:1017C0000CF089E087FD80E08093500302C0109206
:1017D0005003F894E0914F03F0E0E755FD4FE4919A
:1017E000E093220130915003209175033203900160
:1017F0001124409173034203C001439F900D1124B3
:101800000090520302C0880F991F0A94E2F797FFD5
:1018100002C081589F4F880F892F881F990B809392
:10182000B0038093B10378948091AE03882309F4C8
:1018300093C08C3020F43CE0381B398301C01982FE
:10184000FF24F394F0927E03109296031092970374
:1018500040917B034D831981141B042F0D5F4DE2D2
:10186000410F2EE463E086E793E00E9469065D8104
:1018700054505D83105D252F41E0612F80E50E946B
:10188000FE072D8142E0612F83E00E94FE07F09267
:101890009603F092970300917B0343E0E42EE00E61
:1018A0001981101B8DE2810F8D8353E0F52E4D8140
:1018B0006F2D86E793E00E941106F39491E5F912EB
:1018C000F6CFAD81AE0DAD83EA2EEA9433E0F32E70
:1018D0004E2D6F2D86E793E00E941106F394B1E53B
:1018E000FB12F6CF0350105D402F612F80E00E9465
:1018F000E607402F612F83E50E94E60741E0612F54
:1019000083E00E94670742E0612F80E50E9467073D
:101910002D8124502D8344E0622F80E50E946707CB
:1019200048E06D8183E00E94670784E080937F0335
:1019300080917B033981381B315D30938003609146
:10194000AC037091AD0386E793E00E944F0980914C
:10195000AE0381508093AE030E94140980917C03F2
:1019600081110EC088EF91E0E8E2F1E0DF019C0117
:101970001D9221503040E1F710927F0310928003B6
:101980000E945F056093A3037093A4038093A50353
:101990009093A60320919F033091A003621B730BC9
:1019A00070939E0360939D0380E0ADC02FB7F894C1
:1019B0008091240190912501A0912601B0912701E9
:1019C0002FBF2091A703820F911DA11DB11D8093F0
:1019D000A8039093A903A093AA03B093AB038091AB
:1019E000990390919A03A0919B03B0919C03019657
:1019F000A11DB11D8093990390939A03A0939B031B
:101A0000B0939C031092A3031092A4031092A50319
:101A10001092A6030E945F0560939F037093A0033A
:101A20008093A1039093A2038091290390912A03AC
:101A30002FE0289FA001299F500D11245A8349832C
:101A400085E10E944805A981BA818A0F9B1F24E085
:101A5000969587952A95E1F790932A038093290319
:101A600020912803222309F44BC060912C03262FD8
:101A700030E040E050E029833A834B835C83C090A0
:101A80002D03D12CE12CF12C4091300350913103E6
:101A90004A01A12CB12C20912E0330912F03290152
:101AA000612C712C8217930728F09C014817590765
:101AB00008F49A01C901A0E0B0E09C01AD0124192D
:101AC00035094609570969817A818B819C816C1996
:101AD0007D098E099F090E94AD11A5019401241969
:101AE0003509460957090E944A11C20ED31EE41E49
:101AF000F51EC0922B036C2D70E085E00E94E90476
:101B00000E94AB0981E00F900F900F900F900F9003
:101B1000DF91CF911F910F91FF90EF90DF90CF90C9
:101B2000BF90AF909F908F907F906F905F904F90FD
:101B30000895789484B5826084BD84B5816084BD45
:101B400085B5826085BD85B5816085BD80916E005B
:101B5000816080936E00109281008091810082608C
:101B600080938100809181008160809381008091C9
:101B700080008160809380008091B10084608093B8
:101B8000B1008091B00081608093B00080917A00B4
:101B9000846080937A0080917A00826080937A00DA
:101BA00080917A00816080937A0080917A008068C9
:101BB00080937A001092C10082E38093A70381E0B2
:101BC00090E0A0E0B0E08093A3039093A403A093DF
:101BD000A503B093A6038FEF809398039CE39093A3
:101BE000810310922C0380932D0380E293E0909365
:101BF0002F0380932E0384ED93E090933103809321
:101C00003003D7E0D0935303D09352038CEA9DE086
:101C100090934503809344038EED9DE0909347039A
:101C20008093460384E79EE09093490380934803A2
:101C30008CE39FE090934B0380934A03C1E0C093F1
:101C400028036FEF70E085E00E94E90488E080934C
:101C5000320389E080933303D093340386E080938A
:101C6000350384E08093360382E08093370381E17B
:101C7000809338030E94AB098BE0809384038DE04E
:101C80008093830380E1809385038EE080938703B4
:101C90008FE080938603C0937E03C09396031092D7
:101CA0009703C0937D03E7EFF0E0E491EF5FE093EB
:101CB0007A03E8EFF0E0E491EF5FE0937B0389EFD4
:101CC00090E09093950380939403CFB7F89480911C
:101CD0001B01811127C0E8EEF2E08491ECEFF2E005
:101CE0009491E82FF0E0EE0FFF1FEB56FD4FA5910A
:101CF000B491EC91E92321F461E08AE00E947E0432
:101D000061E08AE00E94AD048CB580618CBD8CB529
:101D100080648CBD61E08DE00E94AD0461E08BE0E9
:101D20000E94AD0480911B018F5F80931B01CFBF88
:101D30008CB58F7D8CBD8CB58C7F81608CBD8DB555
:101D400081608DBD8CB58C608CBD61E08091840319
:101D50000E94AD0461E0809183030E94AD0461E0C4
:101D6000809185030E94AD048091870318161CF4AE
:101D700061E00E94AD048091860318161CF461E0B6
:101D80000E94AD0480918703181674F560E00E94EC
:101D90007E040E945F054B015C017AE0C72ED12CC6
:101DA000E12CF12C0E945F05DC01CB018819990917
:101DB000AA09BB09883E9340A105B10598F321E02B
:101DC000C21AD108E108F10888EE880E83E0981E57
:101DD000A11CB11CC114D104E104F10419F761E0A4
:101DE000809187030E947E0480918303082E000C5B
:101DF000990BFC01E252FD4FE491F0E0EE0FFF1F62
:101E0000E156FD4F2591349130938B0320938A0343
:101E1000FC01EE50FD4FE491E09391038091840327
:101E2000082E000C990BFC01E252FD4FE491F0E00A
:101E3000EE0FFF1FE156FD4F25913491309389033A
:101E400020938803FC01EE50FD4FE491E093900352
:101E500080918603082E000C990BFC01E252FD4F85
:101E6000E491F0E0EE0FFF1FE156FD4F2591349114
:101E700030938D0320938C03FC01EE50FD4FE491D1
:101E8000E093920380918503082E000C990BFC01CE
:101E9000E252FD4FE491F0E0EE0FFF1FE156FD4FDF
:101EA0002591349130938F0320938E03FC01EE50E3
:101EB000FD4FE491E093930381E20E94F50884E1F1
:101EC0000E94F5088091810387FF03C08FE780930C
:101ED00081038091810380680E94F50880E20E945E
:101EE000F5088CE00E94F5080E94140981E08093B7
:101EF000510384E08093750383EF90E090935D033A
:101F000080935C0360E080E00E946E0961E070E015
:101F100083E00E94E9048091B100887F8160809312
:101F2000B100F89410928000109281001092850008
:101F30001092840088E191E090938900809388005A
:101F40008091810088608093810080918100816010
:101F50008093810080916F00826080936F007894FD
:101F600082E10E944805BC01990F880B990B61150D
:101F700071058105910511F00E94411110924003F5
:101F80000E944403C3E000E010E0D2E08AE0D82ED3
:101F900093E0E92ECC24C39424E1F22E0E94F609AA
:101FA000882309F479C080911C01813059F038F000
:101FB000823009F45AC0833009F466C06DC00E94B3
:101FC00044036AC0E0910101EA3031F480913903A1
:101FD000813009F068C0A8C0F0E0E85DFC4F81895D
:101FE0008F3F09F48DC080910101813061F028F0AC
:101FF000823079F08330E1F029C08091020188239A
:1020000029F1815012C0809103018823F9F0815099
:102010001BC08091020190910401282F30E0290F0C
:10202000311D2435310594F48F5F809302010EC079
:102030008091030190910501282F30E0290F311D77
:10204000203331051CF48F5F8093030125E832E0D3
:10205000409103016091020186E793E00E94BB0179
:1020600080913F038130C1F44EC0F0927F03F09223
:10207000800369E772E086E793E00E944F09809150
:102080003F03813049F442C080913E038D7F81300F
:1020900009F043C010921C010115110509F47ECF0F
:1020A0000E9400007BCF8F3F29F06C2F0E94BD1152
:1020B0009130D1F180913A038130C9F18F3F29F0FD
:1020C0006C2F0E94BD11913091F180913B038130C2
:1020D00039F08F3F39F06C2F0E94BD11913011F40F
:1020E000D093010180913C03813021F18F3F09F4AD
:1020F0007ACF6C2F0E94BD11913009F074CF1AC0B5
:10210000D092010170CFD0931C0102C080931C01BA
:102110008DE493E00E94DF08BFCF80913D038D7F67
:10212000813009F0B9CFB6CF10920101C3CFC09270
:102130000101CBCFE092010156CF109279031092AA
:1021400078038EE091E0909377038093760308956F
:102150008F929F92AF92BF92CF92DF92EF92FF92B7
:10216000CF93DF93EC01688179818A819B8161152E
:1021700071058105910521F464E279ED8BE597E025
:102180002DE133EF41E050E00E944A1149015A012C
:102190009B01AC01A7EAB1E40E9469116B017C01CB
:1021A000ACEEB4EFA50194010E947711DC01CB01E4
:1021B0008C0D9D1DAE1DBF1DB7FF03C00197A1096A
:1021C000B04888839983AA83BB83BC01CD019F77E4
:1021D000DF91CF91FF90EF90DF90CF90BF90AF90C5
:1021E0009F908F9008958F929F92AF92BF92CF92BF
:1021F000DF92EF92FF92609106017091070180914A
:10220000080190910901611571058105910521F47D
:1022100064E279ED8BE597E02DE133EF41E050E0AA
:102220000E944A1149015A019B01AC01A7EAB1E49D
:102230000E9469116B017C01ACEEB4EFA501940121
:102240000E947711DC01CB018C0D9D1DAE1DBF1DC1
:10225000B7FF03C00197A109B0488093060190938E
:102260000701A0930801B0930901BC01CD019F773C
:10227000FF90EF90DF90CF90BF90AF909F908F90A6
:10228000089560930601709307018093080190936D
:1022900009010895052E97FB1EF400940E94611118
:1022A00057FD07D00E947C1107FC03D04EF40C941C
:1022B000611150954095309521953F4F4F4F5F4F9D
:1022C000089590958095709561957F4F8F4F9F4FA2
:1022D00008950E949E11A59F900DB49F900DA49FFC
:1022E000800D911D11240895B7FF0C9469110E946F
:1022F0006911821B930B0895A1E21A2EAA1BBB1B26
:10230000FD010DC0AA1FBB1FEE1FFF1FA217B307C1
:10231000E407F50720F0A21BB30BE40BF50B661FD7
:10232000771F881F991F1A9469F76095709580959B
:1023300090959B01AC01BD01CF010895A29FB00112
:10234000B39FC001A39F700D811D1124911DB29FE9
:10235000700D811D1124911D0895DB018F939F93B2
:102360000E946911BF91AF91A29F800D911DA39F03
:10237000900DB29F900D11240895991B79E004C02F
:10238000991F961708F0961B881F7A95C9F78095B4
:10239000089597FB072E16F4009407D077FD09D017
:1023A0000E94DD1107FC05D03EF4909581959F4F6A
:1023B0000895709561957F4F0895AA1BBB1B51E14D
:1023C00007C0AA1FBB1FA617B70710F0A61BB70BA5
:1023D000881F991F5A95A9F780959095BC01CD014A
:1023E0000895EE0FFF1F0590F491E02D099481E010
:0C23F00090E0F8940C94FC11F894FFCFDE
:1023FC00010A00180A0701000000000000009906FD
:0A240C00FF022A0329030D0A000055
:107E0000112484B714BE81FFF0D085E080938100F7
:107E100082E08093C00088E18093C10086E0809377
:107E2000C20080E18093C4008EE0C9D0259A86E02C
:107E300020E33CEF91E0309385002093840096BBD3
:107E4000B09BFECF1D9AA8958150A9F7CC24DD24C4
:107E500088248394B5E0AB2EA1E19A2EF3E0BF2EE7
:107E6000A2D0813461F49FD0082FAFD0023811F036
:107E7000013811F484E001C083E08DD089C08234E0
:107E800011F484E103C0853419F485E0A6D080C0E4
:107E9000853579F488D0E82EFF2485D0082F10E0AE
:107EA000102F00270E291F29000F111F8ED06801E7
:107EB0006FC0863521F484E090D080E0DECF843638
:107EC00009F040C070D06FD0082F6DD080E0C81688
:107ED00080E7D80618F4F601B7BEE895C0E0D1E017
:107EE00062D089930C17E1F7F0E0CF16F0E7DF06D8
:107EF00018F0F601B7BEE89568D007B600FCFDCFD4
:107F0000A601A0E0B1E02C9130E011968C91119780
:107F100090E0982F8827822B932B1296FA010C0160
:107F200087BEE89511244E5F5F4FF1E0A038BF0790
:107F300051F7F601A7BEE89507B600FCFDCF97BE46
:107F4000E89526C08437B1F42ED02DD0F82E2BD052
:107F50003CD0F601EF2C8F010F5F1F4F84911BD097
:107F6000EA94F801C1F70894C11CD11CFA94CF0C13
:107F7000D11C0EC0853739F428D08EE10CD085E9AC
:107F80000AD08FE07ACF813511F488E018D01DD067
:107F900080E101D065CF982F8091C00085FFFCCF94
:107FA0009093C60008958091C00087FFFCCF809118
:107FB000C00084FD01C0A8958091C6000895E0E648
:107FC000F0E098E1908380830895EDDF803219F02E
:107FD00088E0F5DFFFCF84E1DECF1F93182FE3DFCA
:107FE0001150E9F7F2DF1F91089580E0E8DFEE27F6
:047FF000FF270994CA
:027FFE00040479
:0400000300007E007B
:00000001FF
