:100000000C9495010C94BD010C94BD010C94BD01A0
:100010000C94BD010C94BD010C94BD010C94BD0168
:100020000C94BD010C94BD010C94BD010C94EF0126
:100030000C94BD010C94BD010C94BD010C94BD0148
:100040000C94980C0C94BD010C94BD010C94BD0152
:100050000C94BD010C94BD010C94BD010C94BD0128
:100060000C94BD010C94BD010101FF030101F703D4
:100070006C00680003053F213F1208120A100A0EA7
:100080001C0E0C1E0C141A14161F161E131E1E1BFB
:100090001E1E1F1E3F213F3A2F3A173D173F213F9B
:1000A000181F02040A041F0E04040E1F0A1F0A0E62
:1000B0000E1F04110E2E252E2F2A2E262929021F4F
:1000C00002081F08150E04040E150E15151B151B2E
:1000D000040604040C040000000017000300031FC2
:1000E0000A1F16371A1904130A153A000300000EE6
:1000F00011110E000A040A040E0400300004040466
:100100000010001804031F111F121F101D151711D6
:10011000151F07041F17151D1F151D01011F1F1592
:100120001F17151F000A00003200040A110A0A0AEC
:10013000110A040115020E11171E051E1F150A0EC5
:10014000110A1F110E1F15111F05010E111D1F048D
:100150001F111F1108100F1F041B1F10101F061F57
:100160001E040F0E110E1F09060E112E1F051A1266
:100170001509011F011F101F0F180F1F0C1F1B0453
:100180001B031C03191513001F11030418111F0072
:100190000201022020200001020C121E1F120C0C72
:1001A00012120C121F0C1A14041E05242A1E1F0200
:1001B0001C141D1020201D1F0814111F101E041ECA
:1001C0001E021C0C120C3E0A040C123E1E040214E9
:1001D000160A020F120E101E0E100E1E081E120C12
:1001E0001226281E322A26041E21001F00211E046A
:1001F0000102013F213F050038016801000016138C
:100200007800161314001510200015201000201778
:100210000000000000070000001FC000003FE000D9
:10022000007FF00001F27C00024012000258D20070
:1002300001D8DC000062300000707000003FE00078
:10024000000F80000000000000000000000000001F
:10025000066F39E00FE663601ACCC240318D8240F0
:10026000631986C0F7BCF78000000000537061631B
:10027000652D496D70616374000805D8F8F8702029
:100280001007C0006E002D005EC02D006E00C00083
:1002900047616D652050617573656400F6E8DBCFDA
:1002A000C3B8AEA49B928A827B746E68625C57521C
:1002B0004E4945413E3A3734312E2C2927252321FA
:1002C000172B16201314000000000023002600291D
:1002D00000040404040404040402020202020203EF
:1002E00003030303030102040810204080010204F9
:1002F000081020010204081020000000080002017C
:100300000000030407000000000000000045006832
:1003100001000000000000240027002A0000000067
:1003200000250028002B0000AB1111241FBECFEFC9
:10033000D8E0DEBFCDBF11E0A0E0B1E0E6E2F6E23A
:1003400002C005900D92AC31B107D9F724E0ACE1C1
:10035000B1E001C01D92AC32B207E1F711E0C5E98E
:10036000D1E004C02197FE010E94FF12C439D107D9
:10037000C9F70E94E20C0C9411130C940000CF9268
:10038000DF92EF92FF920F931F93CF93DF936C0155
:100390007A018B01C0E0D0E0CE15DF0581F0D801F5
:1003A0006D918D01D601ED91FC910190F081E02DD0
:1003B000C6010995892B11F02196EECF7E01C70168
:1003C000DF91CF911F910F91FF90EF90DF90CF9031
:1003D0000895089580E090E008950E9405131F920B
:1003E0000F920FB60F9211242F936F937F938F93D9
:1003F0009F9360912504662359F180911C018F5FC2
:1004000080931C0190919701891710F12091240489
:1004100081E028272093240410921C0180919801E8
:10042000882369F08091000193E4899F802D112435
:10043000895B809300010E94CB12909326042223B3
:1004400029F0809126048093B40002C080E0FBCFA5
:100450009F918F917F916F912F910F900FBE0F9071
:100460001F901895FC01643508F053C0403308F024
:1004700050C090A1742F759575957595262F062EF1
:10048000000C330B542F57709230A1F4F90184E51E
:100490007802E00DF11D1124E356FE4F808190E0BB
:1004A000052E02C0959587950A94E2F78095982FBE
:1004B00091700AC0933041F484858170462740953D
:1004C0004170841303C014C0911112C084E57802F6
:1004D000200D311D1124F901E356FE4F81E090E01B
:1004E00001C0880F5A95EAF780959081892310C042
:1004F00084E57802200D311D1124F901E356FE4FE9
:1005000081E090E001C0880F5A95EAF79081892B2D
:1005100080830895CF92DF92EF92FF920F931F9303
:10052000CF93DF937C01D62EC22EC42F002E000C59
:10053000110B040F111D47FD1A958C2F0C2E000C6A
:10054000990B801791076CF4D0E0DC1544F46D2D05
:100550006D0F4C2FC7010E943202DF5FF6CFCF5FD5
:10056000ECCFDF91CF911F910F91FF90EF90DF9033
:10057000CF9008956F927F928F929F92AF92BF9289
:10058000CF92DF92EF92FF920F931F93CF93DF935F
:10059000EC016A3011F42885A3C06D3009F4A7C0BE
:1005A000A98483E58A150CF485C0BA848FE28B1583
:1005B0000CF480C0D8848C8190E00197D89E900183
:1005C000D99E300D1124C9018A0D911DA7FC9A9561
:1005D000181619060CF06EC02D818B2D0B2C000CFB
:1005E000990BD29E800D911D1124181619060CF03E
:1005F00061C088A09A2CCA2CE62EF12CEC2DEA19A9
:100600000E2E000CFF0B8C8190E0E817F9070CF020
:1006100050C00197E817F90779F0E89E9001E99E2C
:10062000300DF89E300D1124E20FF31F8E8D9F8D3B
:10063000E80FF91F149101C010E06B2C7B2C272DC3
:100640002B19022E000C330B8D8190E028173907EF
:100650006CF510FF11C081E0D81206C0472D6C2D3B
:10066000CE010E9432021EC00D2D2D2D462D692D6A
:10067000CE010E948A0216C089A198A1891791F023
:1006800088A381E0D81206C0472D6C2DCE010E94B0
:10069000320207C00D2D2D2D462D692DCE010E9451
:1006A0008A0288A2169573946D0CC9CFC3949D0CD1
:1006B000A5CF88A228853C818985239F800D1124A0
:1006C00089879F81992399F0082E000C990B44E5A6
:1006D00050E0239F401951091124481759073CF451
:1006E0009D818A85299F800D11248A87198681E042
:1006F00090E0DF91CF911F910F91FF90EF90DF90ED
:10070000CF90BF90AF909F908F907F906F90089503
:10071000AF92BF92CF92DF92EF92FF920F931F930F
:10072000CF93DF93182F062FC1E0D3E08AEFD82EA6
:100730009EEFE92E842F8470C82E842F8270B82EED
:10074000842F8870A82E4170F42E8C2F880F8F5F15
:10075000E80ECC2081F0402F4D0F612F6C0F8BEEF7
:1007600093E00E943202402F4C0F6D2F610F8BEEF1
:1007700093E00E943202BB2081F0402F4D1B612F7D
:100780006C0F8BEE93E00E943202402F4C1B6D2FBA
:10079000610F8BEE93E00E943202AA2081F0402F7D
:1007A0004C0F612F6D1B8BEE93E00E943202402FA5
:1007B0004D0F612F6C1B8BEE93E00E943202F11003
:1007C0000AC0CD17CCF4E7FC04C0D150D394D39425
:1007D000ED0CCF5FBACF402F4C1B612F6D1B8BEE02
:1007E00093E00E943202402F4D1B612F6C1B8BEE59
:1007F00093E00E943202E5CFDF91CF911F910F91DC
:10080000FF90EF90DF90CF90BF90AF9008950F933F
:100810001F93CF93DF93D82F162F042FC0E0C0175C
:100820004CF4412F4C0F6D2F8BEE93E00E9432025F
:10083000CF5FF5CFDF91CF911F910F9108959F92D8
:10084000AF92BF92CF92DF92EF92FF920F931F93DE
:10085000CF93DF93F82EE62EB22E13E0120FD0E0E6
:10086000C3E08AEFC82E0EEF842F8170982EAA2441
:10087000A394A20E4270D42EDF5F812F8B19080F34
:10088000992081F04C2F440F4A0D6E2D6C1B8D2F3B
:100890008F0D0E940704412F6E2D6D1B8C2F8F0D25
:1008A0000E940704D1100AC0DC17CCF407FD04C075
:1008B000C150C394C3940C0D1E5FDECF4C2F440F68
:1008C0004A0D6E2D6C1B8F2D8D1B0E940704412F2E
:1008D0006E2D6D1B8F2D8C1B0E940704E5CFDF91C1
:1008E000CF911F910F91FF90EF90DF90CF90BF902D
:1008F000AF909F90089570E0FC01E60FF71F178AF4
:10090000158A9B01220F331FDC01A20FB31F94969F
:100910001C921E929397108EFB01EA5DFB4F108292
:10092000FB01EB5DFB4F1082FB01EC5DFB4F108286
:100930001092B4000895CF92DF92EF92FF920F933E
:100940001F93CF93DF93082F10E0E801C356DC4FCD
:100950009DA1992309F44BC09EA1911148C09EA569
:100960009801220F331FA90143565C4F7A01FA0107
:1009700034A525A5E32FF22FE90FF11DE90FF11D95
:10098000259134912F3FFFEF3F0711F41DA22FC097
:1009900039ABF801EE0FFF1FE955FC4F3327220F4B
:1009A000331F05A0F6A1E02DE20FF31FC590D490F0
:1009B00081111AC060E082EC93E00E947B04F70191
:1009C000D3AAC2AA000F111FF801E155FC4F16A2CD
:1009D00015A281E08EA389E08BAF1EAEFE01E05C24
:1009E000FF4F1082329610828EA58F5F8EA7DF9107
:1009F000CF911F910F91FF90EF90DF90CF900895CE
:100A0000CF93DF93EC0160E00E947B048DE093E0E4
:100A10009E878D871B8A1A8A81E0898389E08E8B65
:100A2000198E1B8E1D8EDF91CF91089570E0DB0132
:100A3000AA0FBB1FA356BC4FD4962C91D497D59622
:100A40009C91D597E22FF92FE80FF11DE80FF11DCA
:100A5000259134915F9696963C932E939597F90144
:100A6000859194919091C603989F802D112463568F
:100A70007C4FFB01EA5BFF4F8083F901A591B491A4
:100A80004B2F50E0E82FF0E04E175F0720F4F901FC
:100A900025913491832FFB01E95BFF4F989F802DB7
:100AA000112480830895CF93C82FF89460E080913B
:100AB000FA030E94920B8091FB0318161CF460E06D
:100AC0000E94920BCEBD00000DB407FEFDCF8EB587
:100AD0008091FB0318161CF461E00E94920B78943D
:100AE000CF9108950F931F93CF938091F7038F5F5A
:100AF0008093F7030DE911E0C0E08C2F80640E9421
:100B0000530580E80E94530561E08091FA030E943A
:100B1000920B8091FB0318161CF460E00E94920B6C
:100B2000F80184E591919EBD00000DB407FEFDCF54
:100B30009EB58150B9F78091FB0318161CF461E053
:100B40000E94920BCF5F0C5A1F4FC630B1F680E463
:100B5000CF911F910F910C945305DF92EF92FF926A
:100B60000F931F93CF93DF93CDE9D3E004EA13E013
:100B7000EE24EA9462E08A850E94C10B2A8530E067
:100B8000F901E750FD4F8491F901EB51FD4FF490CD
:100B9000F901EF52FD4FD490DD2071F081110E94D8
:100BA000690BED2DF0E0EE0FFF1FE953FD4FA5910E
:100BB000B491EC91FE2299F489898F5F898B60E072
:100BC0008A850E94C10B21960C171D0799F6DF91AB
:100BD000CF911F910F91FF90EF90DF900895898939
:100BE000882389F38F3F11F4198AE9CFE98AE7CF87
:100BF000EF92FF920F931F93CF93DF938C017B01B2
:100C0000C0E0D0E0F701EC0FFD1F6491662339F0DE
:100C1000C8010E94BA02892B11F02196F3CFCE01B0
:100C2000DF91CF911F910F91FF90EF9008954F9218
:100C30005F926F927F928F929F92AF92BF92CF926C
:100C4000DF92EF92FF920F931F93CF93DF9300D029
:100C500000D01F92CDB7DEB740911D0450911E0405
:100C600060911F04709120042FB7F894809199012E
:100C700090919A01A0919B01B0919C012FBF481BBC
:100C8000590B6A0B7B0B80911C0490E0A0E0B0E054
:100C9000009118041091190420911A0430911B043A
:100CA00084179507A607B70730F40115110521052C
:100CB000310509F09CC2012B022B032B09F095C2D0
:100CC0008091B40381508E3F18F58091B303813039
:100CD000F9F48091C7038F5F6091C80387FD09C055
:100CE000082E000C990B70E06F5F7F4F0E94D712A7
:100CF000682F6093C70380EC92E090932204809366
:100D0000210488E48093230482EC93E00E94000590
:100D100080E00E949B048091C303882309F4ADC046
:100D20008091D7038111A9C08091CF039091D00306
:100D3000E091D403F091D503EE0FFF1FE80FF91FE8
:100D4000259134912115310541F52091D3032223BA
:100D500031F01092D5031092D403FC0115C010920B
:100D6000C3038091C203882391F080E00E949B041A
:100D7000E091D403F091D503EE0FFF1F8091CF03D4
:100D80009091D003E80FF91F2591349106C060E0DF
:100D900082EC93E00E947B0470C0A90156954795B0
:100DA0005695479520FF49C0C901A6E096958795BD
:100DB000AA95E1F78F71932F9695969596959051F8
:100DC0004F704230E9F040F44423A1F0413059F52E
:100DD00060E00E94160527C04330E1F0443019F569
:100DE0002091C603289F802D11248093DF039093C8
:100DF000E00319C08B3008F08AE08093D80313C059
:100E00002091C603289F802D11248093DB039093AB
:100E1000DC0309C02091C603289F802D11248093F4
:100E2000DD039093DE03E091D403F091D503319676
:100E3000F093D503E093D4039FCF4F734093D60331
:100E40008091C603839F802D11248093D703109235
:100E5000E7031092E6031092E50381E08093D90343
:100E6000809324041092DA038091D4039091D503E7
:100E700001969093D5038093D4038091D90388235E
:100E800009F4F3C08091D703811106C060E082ECC1
:100E900093E00E947B04E9C081508093D703809146
:100EA000E703811148C02091E5033091E6032F5FED
:100EB0003F4FC901880F991FE091E103F091E203D0
:100EC000E80FF91F65917491862F87708093E8036E
:100ED000AB01E3E056954795EA95E1F7CA0196958F
:100EE0008795972F969596959093E9038F73909198
:100EF000C603899F802D11248093E703417040939E
:100F000098013093E6032093E5038091E30390E09A
:100F10002817390780F02091E403222339F0821B3F
:100F200091099093E6038093E50305C060E082ECAD
:100F300093E00E947B048091E70381508093E70354
:100F40008091DA0321E0280F2093DA034091D60341
:100F50003091E903340F8091CE03380F3093C403EE
:100F60006091DD03662371F070E0822F022E000C89
:100F7000990B0E94D7128091DE03869F300D1124B9
:100F80003093C4038091C40390E0849664E270E0DF
:100F90000E94D7128093C4033091D8033093C503C5
:100FA0006091DB03662381F0062E000C770B822F05
:100FB000022E000C990B0E94D7128091DC03869FB1
:100FC000300D11243093C5036091DF036623A1F037
:100FD000822F220F990B70E00E94D712CB0162E0A2
:100FE00070E00E94D7122091E0039091C503289FE2
:100FF000900D11249093C5034F3351F08091C50398
:101000008A300CF089E087FD80E08093C50302C040
:101010001092C503F894E091C403F0E0E456FD4F4C
:10102000E491E09397013091C5032091EA033203E4
:10103000900111244091E8034203C001439F900DA9
:1010400011240090C70302C0880F991F0A94E2F789
:1010500097FF02C081589F4F880F892F881F990BD7
:101060008093250480932604789480912304882318
:1010700009F493C08C3020F43CE0381B398301C064
:101080001982FF24F394F092F30310920B04109250
:101090000C044091F0034D831981141B042F0D5F44
:1010A0004DE2410F2EE463E08BEE93E00E948A0252
:1010B0005D8154505D83105D252F41E0612F80E5F7
:1010C0000E941F042D8142E0612F83E00E941F04D3
:1010D000F0920B04F0920C040091F00343E0E42E34
:1010E000E00E1981101B8DE2810F8D8353E0F52EE8
:1010F0004D816F2D8BEE93E00E943202F39491E5C7
:10110000F912F6CFAD81AE0DAD83EA2EEA9433E04D
:10111000F32E4E2D6F2D8BEE93E00E943202F3944E
:10112000B1E5FB12F6CF0350105D402F612F80E038
:101130000E940704402F612F83E50E94070441E0CD
:10114000612F83E00E94880342E0612F80E50E94C6
:1011500088032D8124502D8344E0622F80E50E9476
:10116000880348E06D8183E00E94880384E08093D7
:10117000F4038091F0033981381B315D3093F5031E
:1011800060912104709122048BEE93E00E94F80597
:10119000809123048150809323040E9472058091E2
:1011A000F10381110EC088EF91E0EDE9F1E0DF017C
:1011B0009C011D9221503040E1F71092F4031092EF
:1011C000F5030E94730C60931804709319048093C4
:1011D0001A0490931B042091140430911504621B8F
:1011E000730B709313046093120480E0ADC02FB7AB
:1011F000F8948091990190919A01A0919B01B091EE
:101200009C012FBF20911C04820F911DA11DB11DB7
:1012100080931D0490931E04A0931F04B093200498
:1012200080910E0490910F04A0911004B0911104CC
:101230000196A11DB11D80930E0490930F04A093FD
:101240001004B09311041092180410921904109213
:101250001A0410921B040E94730C60931404709380
:101260001504809316049093170480919E03909127
:101270009F032FE0289FA001299F500D11245A831E
:10128000498385E10E945C0CA981BA818A0F9B1F6A
:1012900024E0969587952A95E1F790939F03809394
:1012A0009E0320919D03222309F44BC06091A1036A
:1012B000262F30E040E050E029833A834B835C8363
:1012C000C090A203D12CE12CF12C4091A5035091A8
:1012D000A6034A01A12CB12C2091A3033091A403B1
:1012E0002901612C712C8217930728F09C01481763
:1012F000590708F49A01C901A0E0B0E09C01AD01D2
:10130000241935094609570969817A818B819C81A5
:101310006C197D098E099F090E94BB12A5019401D9
:1013200024193509460957090E945812C20ED31EC6
:10133000E41EF51EC092A0036C2D70E085E00E94B3
:10134000FD0B0E94AD0581E00F900F900F900F9064
:101350000F90DF91CF911F910F91FF90EF90DF9051
:10136000CF90BF90AF909F908F907F906F905F9045
:101370004F9008952F923F925F926F927F928F923B
:101380009F92AF92BF92CF92DF92EF92FF920F9314
:101390001F93CF93DF93EC01F901E4903196849190
:1013A00064350CF019C10E2C000CFF08062F062E18
:1013B000000C110BF701E00FF11F1E161F060CF0B9
:1013C0000BC140330CF008C1A82FC42E042E000C12
:1013D000DD085601A80EB11C87FDBA941A141B042F
:1013E0000CF0FAC02E5F3F4F570197E0A90EB11CD9
:1013F000B7FE04C05701BEE0AB0EB11CB3E0B5941C
:10140000A794BA95E1F747FF0AC0A42FA80FAC9C98
:10141000C001AD9C900D1124281B390B40E08A2F90
:101420000A2E000C990B840F911D47FD9A95C197C8
:1014300014F0A0E3A41BF8A067FD60E0E535F1051A
:1014400014F0E4E5F0E09E2FCC85C427C62E062ECE
:10145000000CDD08F601E01BF10B8F014F01F7E0F6
:101460008F229924E0E8F0E002C0F595E7958A9490
:10147000E2F77E2F17FF02C0095F1F4FF3E01595BB
:101480000795FA95E1F7200F311F542F577081E02F
:1014900001C0880F5A95EAF7459545954595F6019F
:1014A000B4E54B02E00DF11D1124AF0143565E4F30
:1014B000D0E02A2EAA0F3308EE24E394BB24ED2FAC
:1014C000F0E0E215F3050CF087C0F9015490F1E06B
:1014D000FF121AC0962E8A01E72F6901991608F0AB
:1014E00072C08E2E852021F0D8018C90882A8C9293
:1014F000E69531F4BFEFCB1ADB0AF6015490E0E831
:1015000093940F5F1F4FEACFF1101CC0782E709498
:10151000962E8A01E72F6901991608F054C08E2E85
:10152000852021F0D8018C9087208C92E69531F4AB
:10153000BFEFCB1ADB0AF6015490E0E893940F5FFB
:101540001F4FEACFF3E0FF1629F0962E8A01E72F0E
:10155000690137C0682E6094862E8A01972E690132
:101560008916D8F4E92DE52159F0D801EC91782CB1
:101570007C2670FE02C0E82B02C0E621D801EC9365
:10158000969439F4BFEFCB1ADB0AF6015490E0E8E9
:101590009E2E83940F5F1F4FE3CFCE2514C08E2E57
:1015A000852021F0D8018C9088268C92E69531F424
:1015B000BFEFCB1ADB0AF6015490E0E893940F5F7B
:1015C0001F4F991660F3880F19F44C5A5F4F81E052
:1015D000DF5F2A0D3B1D73CFDF91CF911F910F91DC
:1015E000FF90EF90DF90CF90BF90AF909F908F9043
:1015F0007F906F905F903F902F900895CF93DF93EF
:10160000BC018BEE93E00E94F805EC0142E050E053
:1016100069E171E08BEE93E00E94BF018C0F9D1F8A
:10162000DF91CF9108958F929F92AF92BF920F93C7
:101630001F93CF93DF93CDB7DEB7A1970FB6F89482
:10164000DEBF0FBECDBF19A2423008F44AE08E01C2
:101650000F5D1F4F842E912CA12CB12CA50194015C
:101660000E948A12E62FB901CA0101501109EA301D
:1016700014F4E05D01C0E95CD801EC93232B242B2A
:10168000252B61F70115110571F0F801019000207B
:10169000E9F73197AF01401B510BB8018BEE93E096
:1016A0000E94BF0102C080E090E0A1960FB6F894BE
:1016B000DEBF0FBECDBFDF91CF911F910F91BF90C5
:1016C000AF909F908F900895682F8BEE93E00C94CD
:1016D000BA02833081F028F4813099F08230A1F091
:1016E00008958730A9F08830B9F08430D1F4809122
:1016F00080008F7D03C0809180008F778093800071
:10170000089584B58F7702C084B58F7D84BD089518
:101710008091B0008F7703C08091B0008F7D80935F
:10172000B00008951F93CF93DF93282F30E0F90185
:10173000E750FD4F8491F901EB51FD4FD491F90130
:10174000EF52FD4FC491CC23C1F0162F81110E949E
:10175000690BEC2FF0E0EE0FFF1FE35EFC4FA5914D
:10176000B4919FB7F894111104C08C91D095D823EF
:1017700002C0EC91DE2BDC939FBFDF91CF911F91D4
:101780000895CF93DF9390E0FC01EB51FD4F24913E
:10179000FC01EF52FD4F8491882361F190E0880FA6
:1017A000991FFC01ED5EFC4FC591D491FC01E35EF5
:1017B000FC4FA591B491611109C09FB7F89488813D
:1017C000209582238883EC912E230BC0623061F434
:1017D0009FB7F8948881322F309583238883EC91CA
:1017E0002E2B2C939FBF06C08FB7F894E8812E2B29
:1017F00028838FBFDF91CF9108951F93CF93DF93FD
:10180000182FEB0161E00E94C10B209711F460E0FA
:1018100004C0CF3FD10539F461E0812FDF91CF9132
:101820001F910C94920BE12FF0E0E750FD4FE491F3
:10183000E330F9F048F4E130B9F0E230A1F584B5D5
:10184000806284BDC8BD34C0E730E9F0E83019F1EA
:10185000E43049F580918000806280938000D093CD
:101860008B00C0938A0024C084B5806884BDC7BD46
:101870001FC080918000806880938000D093890091
:10188000C093880015C08091B00080688093B0003C
:10189000C093B3000DC08091B00080628093B0000F
:1018A000C093B40005C0C038D1050CF0B5CFAFCFA0
:1018B000DF91CF911F9108958E3008F08E50877080
:1018C000806480937C0080917A00806480937A00A9
:1018D00080917A0086FDFCCF80917800209179007C
:1018E00090E0922B08953FB7F8948091280490914E
:1018F0002904A0912A04B0912B0426B5A89B05C009
:101900002F3F19F00196A11DB11D3FBFBA2FA92F7E
:10191000982F8827820F911DA11DB11DBC01CD01FB
:1019200042E0660F771F881F991F4A95D1F70895E7
:101930001F920F920FB60F9211242F933F938F9304
:101940009F93AF93BF938091990190919A01A09139
:101950009B01B0919C013091270423E0230F2D3788
:1019600020F40196A11DB11D05C026E8230F0296A3
:10197000A11DB11D209327048093990190939A0192
:10198000A0939B01B0939C0180912804909129041D
:10199000A0912A04B0912B040196A11DB11D809342
:1019A000280490932904A0932A04B0932B04BF9198
:1019B000AF919F918F913F912F910F900FBE0F90FC
:1019C0001F901895789484B5826084BD84B5816039
:1019D00084BD85B5826085BD85B5816085BD8091FA
:1019E0006E00816080936E00109281008091810072
:1019F000826080938100809181008160809381006A
:101A0000809180008160809380008091B10084602B
:101A10008093B1008091B00081608093B00080918C
:101A20007A00846080937A0080917A00826080934B
:101A30007A0080917A00816080937A0080917A00A8
:101A4000806880937A001092C10082E380931C0426
:101A500081E090E0A0E0B0E0809318049093190436
:101A6000A0931A04B0931B048FEF80930D049CE3A2
:101A70009093F6031092A1038093A20380E293E077
:101A80009093A4038093A30384ED93E09093A60323
:101A90008093A503D7E0D093C803D093C7038CEA03
:101AA0009DE09093BA038093B9038EED9DE09093EF
:101AB000BC038093BB0384E79EE09093BE038093B6
:101AC000BD038CE39FE09093C0038093BF03C1E00C
:101AD000C0939D036FEF70E085E00E94FD0B88E0EE
:101AE0008093A70389E08093A803D093A90386E09D
:101AF0008093AA0384E08093AB0382E08093AC03DD
:101B000081E18093AD030E94AD058BE08093F903E2
:101B10008DE08093F80380E18093FA038EE0809358
:101B2000FC038FE08093FB03C093F303C0930B048B
:101B300010920C04C093F203E4E7F0E0E491EF5F4D
:101B4000E093EF03E5E7F0E0E491EF5FE093F0036B
:101B500086E790E090930A0480930904CFB7F89445
:101B600080911D01811127C0EBEDF2E08491EFEE31
:101B7000F2E09491E82FF0E0EE0FFF1FED5EFC4FD6
:101B8000A591B491EC91E92321F461E08AE00E94EF
:101B9000920B61E08AE00E94C10B8CB580618CBD24
:101BA0008CB580648CBD61E08DE00E94C10B61E06A
:101BB0008BE00E94C10B80911D018F5F80931D01FE
:101BC000CFBF8CB58F7D8CBD8CB58C7F81608CBD7B
:101BD0008DB581608DBD8CB58C608CBD61E08091D0
:101BE000F9030E94C10B61E08091F8030E94C10BD0
:101BF00061E08091FA030E94C10B8091FC031816EA
:101C00001CF461E00E94C10B8091FB0318161CF4C8
:101C100061E00E94C10B8091FC03181674F560E02E
:101C20000E94920B0E94730C4B015C011AE0C12EC2
:101C3000D12CE12CF12C0E94730CDC01CB01881912
:101C40009909AA09BB09883E9340A105B10598F3FB
:101C500021E0C21AD108E108F10888EE880E83E07D
:101C6000981EA11CB11CC114D104E104F10419F7A0
:101C700061E08091FC030E94920B8091F803082E92
:101C8000000C990BFC01EF52FD4FE491F0E0EE0FD8
:101C9000FF1FE35EFC4F25913491309300042093A5
:101CA000FF03FC01EB51FD4FE491E09306048091AA
:101CB000F903082E000C990BFC01EF52FD4FE49143
:101CC000F0E0EE0FFF1FE35EFC4F2591349130935F
:101CD000FE032093FD03FC01EB51FD4FE491E093E3
:101CE00005048091FB03082E000C990BFC01EF52B8
:101CF000FD4FE491F0E0EE0FFF1FE35EFC4F2591F6
:101D000034913093020420930104FC01EB51FD4F08
:101D1000E491E09307048091FA03082E000C990BDC
:101D2000FC01EF52FD4FE491F0E0EE0FFF1FE35E88
:101D3000FC4F259134913093040420930304FC015B
:101D4000EB51FD4FE491E093080481E20E945305BA
:101D500084E10E9453058091F60387FF03C08FE75B
:101D60008093F6038091F60380680E94530580E219
:101D70000E9453058CE00E9453050E94720581E089
:101D80008093C60384E08093EA0380E790E0909319
:101D9000D2038093D10360E080E00E94160561E0E9
:101DA00070E083E00E94FD0B8091B100887F81602C
:101DB0008093B100F89410928000109281001092EC
:101DC00085001092840088E191E0909389008093CF
:101DD00088008091810088608093810080918100DB
:101DE00081608093810080916F00826080936F009A
:101DF000789482E10E945C0CBC01990F880B990BCE
:101E0000611571058105910511F00E944F12109224
:101E1000B5031092960156E9E52E51E0F52E63E0E8
:101E2000862E70E0A72E70E0B72EE6EFCE2EE1E012
:101E3000DE2E11E00E941706882309F40FC280915C
:101E40009601813009F406C120F0823009F4F6C110
:101E500005C280910D04882309F4EBC01093F303AD
:101E60001092F2031092F1031092B50310930B0439
:101E700010930C0460E082EC93E00E947B041092CB
:101E8000C303C9EE0E9417068823E1F380910E0474
:101E900090910F04A0911004B09111044E97A105E8
:101EA000B105C1F460E082EC93E00E947B04D09223
:101EB000D003C092CF031092D5031092D403109395
:101EC000C30389E08093D8031092DB031092DD03F3
:101ED0001092DF0380910E0490910F04A0911004E2
:101EE000B091110483329105A105B10510F4CF5FC3
:101EF00004C0CC97A105B10548F42EE032E04C2F88
:101F000069E18BEE93E00E94BA09BCCF6CE672E007
:101F10008BEE93E00E94F8058091EF03982F990FC4
:101F2000890F81958D5A8093F4038091F003982F47
:101F3000990F890F8195835D8093F50380910E043D
:101F400084FF03C08AE092E002C086E092E00E9433
:101F5000FE0A8091EF03982F990F890F81958D5A72
:101F60008093F4038091F5038F5F8093F503809154
:101F7000C703882319F082E092E002C08EEF91E05F
:101F80000E94FE0A8091B3038130B1F48091C703AF
:101F90008F5F6091C80387FD09C0082E000C990B64
:101FA00070E06F5F7F4F0E94D712682F6093C70366
:101FB00082EC93E00E9400058091B2038130B9F079
:101FC00020910D04422F50E060E070E080910E04FB
:101FD00090910F04A0911004B091110484179507FB
:101FE000A607B70708F44ECF2F3F09F44BCF2FEFCA
:101FF00020930D0460E082EC93E00E947B04109239
:10200000C30360E082EC93E00E947B04D092D00393
:10201000C092CF031092D5031092D4031093C30340
:1020200089E08093D8031092DB031092DD031092B5
:10203000DF038091B203813009F010C1EEE1F1E0DD
:102040001082118212823396EE16FF06C9F71093A2
:10205000960104C148EF51E06FEF7FEF8DE991E009
:102060000E940A1310920B0410920C04C0E0D0E0FE
:1020700080910601D81758F429E732E040E06C2F30
:102080008BEE93E00E94BA09DF5FCA5FF1CF109236
:10209000F50321E42093F403C0910701D0910801D6
:1020A000C83E83E0D8077CF480E30E94640BC4360A
:1020B000D1054CF480E30E94640BCA30D1051CF4B6
:1020C00080E30E94640B2E01DD0F6608770877FE1F
:1020D0000CC08DE20E94640B66277727CB01641940
:1020E0007509860997094AE003C04AE0C301B201B5
:1020F0000E94130BE0910101EA3031F48091AE03AC
:10210000813009F0B2C019C1F0E0E356FC4F81897B
:102110008F3F09F403C1809101018230D9F028F486
:10212000882341F0813071F03DC0833011F184305B
:10213000A9F138C0809102018823B9F181508093C0
:10214000020133C080910301863078F18150809381
:1021500003012BC02091020130910401822F90E0F5
:10216000830F911D8435910504F52F5F20930201A3
:102170001CC02091030130910501822F90E0830F54
:10218000911DC09794F42F5F209303010EC02F5F21
:102190003F4F33962832310509F0A2C02AE0209340
:1021A000010103C08AE08093010120E832E0409100
:1021B0000301609102018BEE93E00E94BA09CEE127
:1021C000D1E08881853508F01A829A81913031F505
:1021D00077247394780E372C2980082F781614F4FE
:1021E000072D382E632C601A962C67FE03C09924A5
:1021F0009394960C9594301664F0422D602F8BEEDC
:1022000093E00E94320297FE02C02A94960C0F5F60
:10221000F2CF82EC93E00E94000578822396EC16C0
:10222000FD0679F680910601811103C023E0209319
:1022300096018091B403813089F474C084E1809365
:10224000F4038093F50360E972E08BEE93E00E9463
:10225000F8058091B403813009F468C0A114B10479
:1022600009F4E8CD0E940000E4CD8F3F31F0682DE5
:102270000E94CB12913009F460C08091AF0381308D
:1022800009F45EC08F3F31F0682D0E94CB1291306F
:1022900009F456C08091B003813009F454C08F3FD7
:1022A00031F0682D0E94CB12913009F44CC080911E
:1022B000B103813009F44BC08F3F31F0682D0E948B
:1022C000CB12913009F443C08091B203813009F000
:1022D00022CF24E020930101EEE1F1E020E030E0A4
:1022E0008281811154CFC901880F991F820F931FDA
:1022F000FC01E25EFE4F80910201865F8083809147
:1023000003018D5F81831283809107019091080101
:1023100001969093080180930701FDCE8AE0809397
:102320000101F9CE22E02093960102C0809396012C
:1023300082EC93E00E94000591CF109201019DCFA5
:1023400010930101A7CF82E080930101B0CF23E079
:1023500020930101B9CF1092EE031092ED0381E1B9
:1023600091E09093EC038093EB0308958F929F92FA
:10237000AF92BF92CF92DF92EF92FF92CF93DF9313
:10238000EC01688179818A819B81611571058105E4
:10239000910521F464E279ED8BE597E02DE133EFCF
:1023A00041E050E00E94581249015A019B01AC01E2
:1023B000A7EAB1E40E9477126B017C01ACEEB4EFA6
:1023C000A50194010E948512DC01CB018C0D9D1D9D
:1023D000AE1DBF1DB7FF03C00197A109B048888398
:1023E0009983AA83BB83BC01CD019F77DF91CF91F5
:1023F000FF90EF90DF90CF90BF90AF909F908F9025
:1024000008958F929F92AF92BF92CF92DF92EF92F8
:10241000FF926091090170910A0180910B019091E6
:102420000C01611571058105910521F464E279EDD6
:102430008BE597E02DE133EF41E050E00E94581228
:1024400049015A019B01AC01A7EAB1E40E9477124D
:102450006B017C01ACEEB4EFA50194010E948512E2
:10246000DC01CB018C0D9D1DAE1DBF1DB7FF03C050
:102470000197A109B0488093090190930A01A093A4
:102480000B01B0930C01BC01CD019F77FF90EF9041
:10249000DF90CF90BF90AF909F908F900895609302
:1024A000090170930A0180930B0190930C01089528
:1024B000052E97FB1EF400940E946F1257FD07D063
:1024C0000E948A1207FC03D04EF40C946F125095B0
:1024D0004095309521953F4F4F4F5F4F0895909510
:1024E0008095709561957F4F8F4F9F4F08950E9403
:1024F000AC12A59F900DB49F900DA49F800D911DCF
:1025000011240895B7FF0C9477120E947712821B52
:10251000930B0895A1E21A2EAA1BBB1BFD010DC04F
:10252000AA1FBB1FEE1FFF1FA217B307E407F50783
:1025300020F0A21BB30BE40BF50B661F771F881F5F
:10254000991F1A9469F760957095809590959B01F5
:10255000AC01BD01CF010895A29FB001B39FC0019E
:10256000A39F700D811D1124911DB29F700D811DBF
:102570001124911D0895DB018F939F930E94771280
:10258000BF91AF91A29F800D911DA39F900DB29F0F
:10259000900D11240895991B79E004C0991F961796
:1025A00008F0961B881F7A95C9F78095089597FBC8
:1025B000072E16F4009407D077FD09D00E94EB1285
:1025C00007FC05D03EF4909581959F4F0895709536
:1025D00061957F4F0895AA1BBB1B51E107C0AA1F3D
:1025E000BB1FA617B70710F0A61BB70B881F991FB4
:1025F0005A95A9F780959095BC01CD010895EE0FED
:10260000FF1F0590F491E02D099481E090E0F8948B
:102610000C941113DC0101C06D9341505040E0F760
:062620000895F894FFCFBD
:10262600010A00180A07030000010000000000006C
:0C26360000BA02BF01EA01E9010D0A0030
:107E0000112484B714BE81FFF0D085E080938100F7
:107E100082E08093C00088E18093C10086E0809377
:107E2000C20080E18093C4008EE0C9D0259A86E02C
:107E300020E33CEF91E0309385002093840096BBD3
:107E4000B09BFECF1D9AA8958150A9F7CC24DD24C4
:107E500088248394B5E0AB2EA1E19A2EF3E0BF2EE7
:107E6000A2D0813461F49FD0082FAFD0023811F036
:107E7000013811F484E001C083E08DD089C08234E0
:107E800011F484E103C0853419F485E0A6D080C0E4
:107E9000853579F488D0E82EFF2485D0082F10E0AE
:107EA000102F00270E291F29000F111F8ED06801E7
:107EB0006FC0863521F484E090D080E0DECF843638
:107EC00009F040C070D06FD0082F6DD080E0C81688
:107ED00080E7D80618F4F601B7BEE895C0E0D1E017
:107EE00062D089930C17E1F7F0E0CF16F0E7DF06D8
:107EF00018F0F601B7BEE89568D007B600FCFDCFD4
:107F0000A601A0E0B1E02C9130E011968C91119780
:107F100090E0982F8827822B932B1296FA010C0160
:107F200087BEE89511244E5F5F4FF1E0A038BF0790
:107F300051F7F601A7BEE89507B600FCFDCF97BE46
:107F4000E89526C08437B1F42ED02DD0F82E2BD052
:107F50003CD0F601EF2C8F010F5F1F4F84911BD097
:107F6000EA94F801C1F70894C11CD11CFA94CF0C13
:107F7000D11C0EC0853739F428D08EE10CD085E9AC
:107F80000AD08FE07ACF813511F488E018D01DD067
:107F900080E101D065CF982F8091C00085FFFCCF94
:107FA0009093C60008958091C00087FFFCCF809118
:107FB000C00084FD01C0A8958091C6000895E0E648
:107FC000F0E098E1908380830895EDDF803219F02E
:107FD00088E0F5DFFFCF84E1DECF1F93182FE3DFCA
:107FE0001150E9F7F2DF1F91089580E0E8DFEE27F6
:047FF000FF270994CA
:027FFE00040479
:0400000300007E007B
:00000001FF
