:100000000C9495010C94BD010C94BD010C94BD01A0
:100010000C94BD010C94BD010C94BD010C94BD0168
:100020000C94BD010C94BD010C94BD010C949B0279
:100030000C94BD010C94BD010C94BD010C94BD0148
:100040000C94F30C0C94BD010C94BD010C94BD01F7
:100050000C94BD010C94BD010C94BD010C94BD0128
:100060000C94BD010C94BD010101FF030101F703D4
:100070000805D8F8F870201007C0006E002D005E4B
:10008000C02D006E00C0006C00680003053F213FDA
:100090001208120A100A0E1C0E0C1E0C141A14164A
:1000A0001F161E131E1E1B1E1E1F1E3F213F3A2F12
:1000B0003A173D173F213F181F02040A041F0E0480
:1000C000040E1F0A1F0A0E0E1F04110E2E252E2FBE
:1000D0002A2E262929021F02081F08150E04040EC5
:1000E000150E15151B151B040604040C0400000056
:1000F0000017000300031F0A1F16371A1904130AFA
:10010000153A000300000E11110E000A040A040E35
:10011000040030000404040010001804031F111F21
:10012000121F101D151711151F07041F17151D1F6E
:10013000151D01011F1F151F17151F000A00003292
:1001400000040A110A0A0A110A040115020E111705
:100150001E051E1F150A0E110A1F110E1F15111F55
:1001600005010E111D1F041F111F1108100F1F0480
:100170001B1F10101F061F1E040F0E110E1F090655
:100180000E112E1F051A121509011F011F101F0F36
:10019000180F1F0C1F1B041B031C03191513001F32
:1001A00011030418111F0002010220202000010287
:1001B0000C121E1F120C0C12120C121F0C1A14041B
:1001C0001E05242A1E1F021C141D1020201D1F089E
:1001D00014111F101E041E1E021C0C120C3E0A04D9
:1001E0000C123E1E040214160A020F120E101E0EEE
:1001F000100E1E081E120C1226281E322A26041E5D
:1002000021001F00211E040102013F213F0500388B
:100210000168010000161378001613140015102051
:10022000001520100020170000000000070000004B
:100230001FC000003FE000007FF00001F27C0002E0
:100240004012000258D20001D8DC000062300000E9
:10025000707000003FE000000F8000000000000010
:1002600000000000000000066F39E00FE663601A2E
:10027000CCC240318D8240631986C0F7BCF7800044
:1002800000000053706163652D496D7061637400F7
:1002900047616D652050617573656400F6E8DBCFDA
:1002A000C3B8AEA49B928A827B746E68625C57521C
:1002B0004E4945413E3A3734312E2C2927252321FA
:1002C000172B16201314000000000023002600291D
:1002D00000040404040404040402020202020203EF
:1002E00003030303030102040810204080010204F9
:1002F000081020010204081020000000080002017C
:100300000000030407000000000000000045006832
:1003100001000000000000240027002A0000000067
:1003200000250028002B0000CB1111241FBECFEFA9
:10033000D8E0DEBFCDBF11E0A0E0B1E0E6E6F6E236
:1003400002C005900D92AE31B107D9F724E0AEE1BD
:10035000B1E001C01D92AF32B207E1F711E0C5E98B
:10036000D1E004C02197FE010E941F13C439D107B8
:10037000C9F70E943D0D0C9431130C940000CF92EC
:10038000DF92EF92FF920F931F93CF93DF936C0155
:100390007A018B01C0E0D0E0CE15DF0581F0D801F5
:1003A0006D918D01D601ED91FC910190F081E02DD0
:1003B000C6010995892B11F02196EECF7E01C70168
:1003C000DF91CF911F910F91FF90EF90DF90CF9031
:1003D0000895E0E2F1E0108211821282339681E00A
:1003E000E839F807C1F70895089580E090E008958E
:1003F000E3E0F1E027E730E0418160818DEE93E0BA
:100400000C94660A0E94251380910201823089F0C3
:10041000833079F0813099F448EF51E06FEF7FEF4E
:100420008FE991E00E942A1310920D0410920E049D
:10043000089581E080930D0480930E04089581E077
:10044000809302010895CF92DF92EF92FF920F9373
:100450001F93CF93DF93CDB7DEB7A1970FB6F89474
:10046000DEBF0FBECDBF10E000E08091070108178E
:1004700058F420E730E040E0612F8DEE93E00E94D9
:10048000660A0F5F1A5FF1CF1092F7038CE3809337
:10049000F6030091080110910901003187E2180765
:1004A00090F40E94BF0B083EE3E01E0760F40E9438
:1004B000BF0B0436110538F40E94BF0B0A3011053A
:1004C00010F40E94BF0B980140E050E019A28E0189
:1004D0000F5D1F4F8AE0C82ED12CE12CF12CCA01F0
:1004E000B901A70196010E94AA12605DF80162930A
:1004F0008F01211531054105510589F7309761F0CC
:1005000001900020E9F73197AF01401B510BB80172
:100510008DEE93E00E94BF01A1960FB6F894DEBF66
:100520000FBECDBFDF91CF911F910F91FF90EF9044
:10053000DF90CF9008951F920F920FB60F92112463
:100540002F936F937F938F939F93609128046623DB
:1005500059F180911E018F5F80931E019091990146
:10056000891710F12091270481E028272093270480
:1005700010921E0180919A01882369F080910001F8
:1005800093E4899F802D1124895B809300010E9450
:10059000EB1290932904222329F08091290480935F
:1005A000B40002C080E0FBCF9F918F917F916F914B
:1005B0002F910F900FBE0F901F901895FC0164357E
:1005C00008F053C0403308F050C090A1742F7595C7
:1005D00075957595262F062E000C330B542F5770EA
:1005E0009230A1F4F90184E57802E00DF11D1124A7
:1005F000E156FE4F808190E0052E02C095958795CB
:100600000A94E2F78095982F91700AC0933041F4D4
:1006100084858170462740954170841303C014C0BF
:10062000911112C084E57802200D311D1124F901C9
:10063000E156FE4F81E090E001C0880F5A95EAF73D
:1006400080959081892310C084E57802200D311DAA
:100650001124F901E156FE4F81E090E001C0880FBE
:100660005A95EAF79081892B80830895CF92DF9283
:10067000EF92FF920F931F93CF93DF937C01D62EBF
:10068000C22EC42F002E000C110B040F111D47FDAC
:100690001A958C2F0C2E000C990B801791076CF477
:1006A000D0E0DC1544F46D2D6D0F4C2FC7010E9476
:1006B000DE02DF5FF6CFCF5FECCFDF91CF911F91EE
:1006C0000F91FF90EF90DF90CF9008956F927F92FF
:1006D0008F929F92AF92BF92CF92DF92EF92FF9252
:1006E0000F931F93CF93DF93EC016A3011F42885A9
:1006F000A3C06D3009F4A7C0A98483E58A150CF462
:1007000085C0BA848FE28B150CF480C0D8848C81AC
:1007100090E00197D89E9001D99E300D1124C90117
:100720008A0D911DA7FC9A95181619060CF06EC03B
:100730002D818B2D0B2C000C990BD29E800D911DC1
:100740001124181619060CF061C088A09A2CCA2C26
:10075000E62EF12CEC2DEA190E2E000CFF0B8C81ED
:1007600090E0E817F9070CF050C00197E817F90777
:1007700079F0E89E9001E99E300DF89E300D11242D
:10078000E20FF31F8E8D9F8DE80FF91F149101C0AA
:1007900010E06B2C7B2C272D2B19022E000C330B19
:1007A0008D8190E0281739076CF510FF11C081E0AA
:1007B000D81206C0472D6C2DCE010E94DE021EC04D
:1007C0000D2D2D2D462D692DCE010E94360316C00C
:1007D00089A198A1891791F088A381E0D81206C059
:1007E000472D6C2DCE010E94DE0207C00D2D2D2D50
:1007F000462D692DCE010E94360388A2169573946A
:100800006D0CC9CFC3949D0CA5CF88A228853C81CF
:100810008985239F800D112489879F81992399F0D1
:10082000082E000C990B44E550E0239F4019510914
:100830001124481759073CF49D818A85299F800D12
:1008400011248A87198681E090E0DF91CF911F9172
:100850000F91FF90EF90DF90CF90BF90AF909F905F
:100860008F907F906F900895AF92BF92CF92DF925A
:10087000EF92FF920F931F93CF93DF93182F062FC2
:10088000C1E0D3E08AEFD82E9EEFE92E842F84704A
:10089000C82E842F8270B82E842F8870A82E4170A5
:1008A000F42E8C2F880F8F5FE80ECC2081F0402F24
:1008B0004D0F612F6C0F8DEE93E00E94DE02402FF2
:1008C0004C0F6D2F610F8DEE93E00E94DE02BB2076
:1008D00081F0402F4D1B612F6C0F8DEE93E00E9435
:1008E000DE02402F4C1B6D2F610F8DEE93E00E94B6
:1008F000DE02AA2081F0402F4C0F612F6D1B8DEE80
:1009000093E00E94DE02402F4D0F612F6C1B8DEE95
:1009100093E00E94DE02F1100AC0CD17CCF4E7FC90
:1009200004C0D150D394D394ED0CCF5FBACF402FF5
:100930004C1B612F6D1B8DEE93E00E94DE02402F59
:100940004D1B612F6C1B8DEE93E00E94DE02E5CF04
:10095000DF91CF911F910F91FF90EF90DF90CF909B
:10096000BF90AF9008950F931F93CF93DF93D82F2D
:10097000162F042FC0E0C0174CF4412F4C0F6D2FE1
:100980008DEE93E00E94DE02CF5FF5CFDF91CF9135
:100990001F910F9108959F92AF92BF92CF92DF92D5
:1009A000EF92FF920F931F93CF93DF93F82EE62ED3
:1009B000B22E13E0120FD0E0C3E08AEFC82E0EEF84
:1009C000842F8170982EAA24A394A20E4270D42E54
:1009D000DF5F812F8B19080F992081F04C2F440F76
:1009E0004A0D6E2D6C1B8D2F8F0D0E94B304412F6D
:1009F0006E2D6D1B8C2F8F0D0E94B304D1100AC079
:100A0000DC17CCF407FD04C0C150C394C3940C0D93
:100A10001E5FDECF4C2F440F4A0D6E2D6C1B8F2DA9
:100A20008D1B0E94B304412F6E2D6D1B8F2D8C1BCF
:100A30000E94B304E5CFDF91CF911F910F91FF90FA
:100A4000EF90DF90CF90BF90AF909F90089570E0AF
:100A5000FC01E60FF71F178A158A9B01220F331F2F
:100A6000DC01A20FB31F94961C921E929397108ED6
:100A7000FB01E75DFB4F1082FB01E85DFB4F10823D
:100A8000FB01E95DFB4F10821092B4000895CF92F4
:100A9000DF92EF92FF920F931F93CF93DF93082F74
:100AA00010E0E801C156DC4F9DA1992309F44BC029
:100AB0009EA1911148C09EA59801220F331FA90144
:100AC00041565C4F7A01FA0134A525A5E32FF22F98
:100AD000E90FF11DE90FF11D259134912F3FFFEF33
:100AE0003F0711F41DA22FC039ABF801EE0FFF1F15
:100AF000E755FC4F3327220F331F05A0F6A1E02D49
:100B0000E20FF31FC590D49081111AC060E084EC0D
:100B100093E00E942705F701D3AAC2AA000F111F74
:100B2000F801EF54FC4F16A215A281E08EA389E0D4
:100B30008BAF1EAEFE01E05CFF4F1082329610823A
:100B40008EA58F5F8EA7DF91CF911F910F91FF90A0
:100B5000EF90DF90CF900895CF93DF93EC0160E0AA
:100B60000E9427058DE093E09E878D871B8A1A8A55
:100B700081E0898389E08E8B198E1B8E1D8EDF911B
:100B8000CF91089570E0DB01AA0FBB1FA156BC4FA7
:100B9000D4962C91D497D5969C91D597E22FF92F86
:100BA000E80FF11DE80FF11D259134915F9696969F
:100BB0003C932E939597F901859194919091C80358
:100BC000989F802D112461567C4FFB01EA5BFF4FFB
:100BD0008083F901A591B4914B2F50E0E82FF0E00C
:100BE0004E175F0720F4F90125913491832FFB0103
:100BF000E95BFF4F989F802D112480830895CF9348
:100C0000C82FF89460E08091FC030E94ED0B809166
:100C1000FD0318161CF460E00E94ED0BCEBD000031
:100C20000DB407FEFDCF8EB58091FD0318161CF4A0
:100C300061E00E94ED0B7894CF9108950F931F937C
:100C4000CF938091F9038F5F8093F9030FE911E04F
:100C5000C0E08C2F80640E94FF0580E80E94FF05A1
:100C600061E08091FC030E94ED0B8091FD0318165A
:100C70001CF460E00E94ED0BF80184E591919EBDAB
:100C800000000DB407FEFDCF9EB58150B9F78091ED
:100C9000FD0318161CF461E00E94ED0BCF5F0C5AA7
:100CA0001F4FC630B1F680E4CF911F910F910C9485
:100CB000FF05DF92EF92FF920F931F93CF93DF9385
:100CC000CFE9D3E006EA13E0EE24EA9462E08A85F5
:100CD0000E941C0C2A8530E0F901E750FD4F8491F9
:100CE000F901EB51FD4FF490F901EF52FD4FD49013
:100CF000DD2071F081110E94C40BED2DF0E0EE0FAC
:100D0000FF1FE953FD4FA591B491EC91FE2299F498
:100D100089898F5F898B60E08A850E941C0C2196EF
:100D20000C171D0799F6DF91CF911F910F91FF903E
:100D3000EF90DF9008958989882389F38F3F11F41C
:100D4000198AE9CFE98AE7CFEF92FF920F931F93B9
:100D5000CF93DF938C017B01C0E0D0E0F701EC0F73
:100D6000FD1F6491662339F0C8010E946603892B38
:100D700011F02196F3CFCE01DF91CF911F910F910A
:100D8000FF90EF9008954F925F926F927F928F92B3
:100D90009F92AF92BF92CF92DF92EF92FF920F930A
:100DA0001F93CF93DF9300D000D01F92CDB7DEB753
:100DB00040912004509121046091220470912304F9
:100DC0002FB7F89480919B0190919C01A0919D0177
:100DD000B0919E012FBF481B590B6A0B7B0B809172
:100DE0001F0490E0A0E0B0E000911A0410911B04F1
:100DF00020911C0430911D0484179507A607B7079E
:100E000030F4011511052105310509F09CC2012BB3
:100E1000022B032B09F095C28091B60381508E3FBF
:100E200018F58091B5038130F9F48091C9038F5F83
:100E30006091CA0387FD09C0082E000C990B70E071
:100E40006F5F7F4F0E94F712682F6093C90380EC99
:100E500092E0909325048093240488E480932604F0
:100E600084EC93E00E94AC0580E00E9447058091ED
:100E7000C503882309F4ADC08091D9038111A9C0AD
:100E80008091D1039091D203E091D603F091D703E2
:100E9000EE0FFF1FE80FF91F259134912115310541
:100EA00041F52091D503222331F01092D7031092FF
:100EB000D603FC0115C01092C5038091C40388239A
:100EC00091F080E00E944705E091D603F091D703AE
:100ED000EE0FFF1F8091D1039091D203E80FF91F0D
:100EE0002591349106C060E084EC93E00E942705D0
:100EF00070C0A901569547955695479520FF49C062
:100F0000C901A6E096958795AA95E1F78F71932F71
:100F100096959695969590514F704230E9F040F431
:100F20004423A1F0413059F560E00E94C20527C07A
:100F30004330E1F0443019F52091C803289F802DFB
:100F400011248093E1039093E20319C08B3008F0E1
:100F50008AE08093DA0313C02091C803289F802D74
:100F600011248093DD039093DE0309C02091C80310
:100F7000289F802D11248093DF039093E003E0915C
:100F8000D603F091D7033196F093D703E093D603BD
:100F90009FCF4F734093D8038091C803839F802DC8
:100FA00011248093D9031092E9031092E803109260
:100FB000E70381E08093DB03809327041092DC0336
:100FC0008091D6039091D70301969093D703809395
:100FD000D6038091DB03882309F4F3C08091D90301
:100FE000811106C060E084EC93E00E942705E9C00F
:100FF00081508093D9038091E903811148C02091E9
:10100000E7033091E8032F5F3F4FC901880F991F15
:10101000E091E303F091E403E80FF91F6591749107
:10102000862F87708093EA03AB01E3E056954795DE
:10103000EA95E1F7CA0196958795972F969596952B
:101040009093EB038F739091C803899F802D112497
:101050008093E903417040939A013093E803209311
:10106000E7038091E50390E02817390780F020918D
:10107000E603222339F0821B91099093E8038093C1
:10108000E70305C060E084EC93E00E9427058091AF
:10109000E90381508093E9038091DC0321E0280F6C
:1010A0002093DC034091D8033091EB03340F8091FF
:1010B000D003380F3093C6036091DF03662371F0CD
:1010C00070E0822F022E000C990B0E94F712809183
:1010D000E003869F300D11243093C6038091C60330
:1010E00090E0849664E270E00E94F7128093C60359
:1010F0003091DA033093C7036091DD03662381F0FA
:10110000062E000C770B822F022E000C990B0E94EA
:10111000F7128091DE03869F300D11243093C703B0
:101120006091E1036623A1F0822F220F990B70E0FA
:101130000E94F712CB0162E070E00E94F71220914A
:10114000E2039091C703289F900D11249093C70349
:101150004F3351F08091C7038A300CF089E087FD4E
:1011600080E08093C70302C01092C703F894E09117
:10117000C603F0E0E456FD4FE491E093990130910D
:10118000C7032091EC033203900111244091EA033C
:101190004203C001439F900D11240090C90302C077
:1011A000880F991F0A94E2F797FF02C081589F4F5A
:1011B000880F892F881F990B809328048093290416
:1011C000789480912604882309F493C08C3020F40D
:1011D0003CE0381B398301C01982FF24F394F0925C
:1011E000F50310920D0410920E044091F2034D830A
:1011F0001981141B042F0D5F4DE2410F2EE463E0B3
:101200008DEE93E00E9436035D8154505D83105D46
:10121000252F41E0612F80E50E94CB042D8142E023
:10122000612F83E00E94CB04F0920D04F0920E0433
:101230000091F20343E0E42EE00E1981101B8DE2D1
:10124000810F8D8353E0F52E4D816F2D8DEE93E050
:101250000E94DE02F39491E5F912F6CFAD81AE0D56
:10126000AD83EA2EEA9433E0F32E4E2D6F2D8DEEF2
:1012700093E00E94DE02F394B1E5FB12F6CF035037
:10128000105D402F612F80E00E94B304402F612F3A
:1012900083E50E94B30441E0612F83E00E9434049F
:1012A00042E0612F80E50E9434042D8124502D837B
:1012B00044E0622F80E50E94340448E06D8183E0C1
:1012C0000E94340484E08093F6038091F203398114
:1012D000381B315D3093F70360912404709125042D
:1012E0008DEE93E00E94A4068091260481508093A5
:1012F00026040E941E068091F30381110EC088EF20
:1013000091E0EFE9F1E0DF019C011D9221503040B6
:10131000E1F71092F6031092F7030E94CE0C60934F
:101320001A0470931B0480931C0490931D04209155
:10133000160430911704621B730B709315046093AD
:10134000140480E0ADC02FB7F89480919B01909178
:101350009C01A0919D01B0919E012FBF20911F047F
:10136000820F911DA11DB11D809320049093210433
:10137000A0932204B093230480911004909111044F
:10138000A0911204B09113040196A11DB11D809388
:10139000100490931104A0931204B09313041092BC
:1013A0001A0410921B0410921C0410921D040E9437
:1013B000CE0C6093160470931704809318049093D6
:1013C00019048091A0039091A1032FE0289FA00110
:1013D000299F500D11245A83498385E10E94B70C3F
:1013E000A981BA818A0F9B1F24E0969587952A953B
:1013F000E1F79093A1038093A00320919F03222300
:1014000009F44BC06091A303262F30E040E050E088
:1014100029833A834B835C83C090A403D12CE12CB5
:10142000F12C4091A7035091A8034A01A12CB12CA3
:101430002091A5033091A6032901612C712C8217FC
:10144000930728F09C014817590708F49A01C9012D
:10145000A0E0B0E09C01AD01241935094609570907
:1014600069817A818B819C816C197D098E099F0924
:101470000E94DB12A5019401241935094609570978
:101480000E947812C20ED31EE41EF51EC092A20363
:101490006C2D70E085E00E94580C0E94590681E096
:1014A0000F900F900F900F900F90DF91CF911F91A1
:1014B0000F91FF90EF90DF90CF90BF90AF909F90F3
:1014C0008F907F906F905F904F9008952F923F92F2
:1014D0005F926F927F928F929F92AF92BF92CF92C4
:1014E000DF92EF92FF920F931F93CF93DF93EC0164
:1014F000F901E4903196849164350CF019C10E2CF9
:10150000000CFF08062F062E000C110BF701E00F50
:10151000F11F1E161F060CF00BC140330CF008C162
:10152000A82FC42E042E000CDD085601A80EB11CF5
:1015300087FDBA941A141B040CF0FAC02E5F3F4FBB
:10154000570197E0A90EB11CB7FE04C05701BEE0D9
:10155000AB0EB11CB3E0B594A794BA95E1F747FF81
:101560000AC0A42FA80FAC9CC001AD9C900D112403
:10157000281B390B40E08A2F0A2E000C990B840F90
:10158000911D47FD9A95C19714F0A0E3A41BF8A004
:1015900067FD60E0E535F10514F0E4E5F0E09E2F2D
:1015A000CC85C427C62E062E000CDD08F601E01BF4
:1015B000F10B8F014F01F7E08F229924E0E8F0E072
:1015C00002C0F595E7958A94E2F77E2F17FF02C0D7
:1015D000095F1F4FF3E015950795FA95E1F7200F86
:1015E000311F542F577081E001C0880F5A95EAF7D8
:1015F000459545954595F601B4E54B02E00DF11D85
:101600001124AF0141565E4FD0E02A2EAA0F3308B5
:10161000EE24E394BB24ED2FF0E0E215F3050CF08B
:1016200087C0F9015490F1E0FF121AC0962E8A018A
:10163000E72F6901991608F072C08E2E852021F0DF
:10164000D8018C90882A8C92E69531F4BFEFCB1AA2
:10165000DB0AF6015490E0E893940F5F1F4FEACF46
:10166000F1101CC0782E7094962E8A01E72F690124
:10167000991608F054C08E2E852021F0D8018C9048
:1016800087208C92E69531F4BFEFCB1ADB0AF60186
:101690005490E0E893940F5F1F4FEACFF3E0FF16FA
:1016A00029F0962E8A01E72F690137C0682E6094D1
:1016B000862E8A01972E69018916D8F4E92DE52135
:1016C00059F0D801EC91782C7C2670FE02C0E82BF2
:1016D00002C0E621D801EC93969439F4BFEFCB1AFF
:1016E000DB0AF6015490E0E89E2E83940F5F1F4FB3
:1016F000E3CFCE2514C08E2E852021F0D8018C900A
:1017000088268C92E69531F4BFEFCB1ADB0AF601FE
:101710005490E0E893940F5F1F4F991660F3880F81
:1017200019F44C5A5F4F81E0DF5F2A0D3B1D73CFE8
:10173000DF91CF911F910F91FF90EF90DF90CF90AD
:10174000BF90AF909F908F907F906F905F903F90F1
:101750002F900895CF93DF93BC018DEE93E00E940C
:10176000A406EC0142E050E06AE171E08DEE93E006
:101770000E94BF018C0F9D1FDF91CF91089560E300
:101780008DEE93E00C946603833081F028F4813071
:1017900099F08230A1F008958730A9F08830B9F02F
:1017A0008430D1F4809180008F7D03C080918000CF
:1017B0008F7780938000089584B58F7702C084B5B9
:1017C0008F7D84BD08958091B0008F7703C0809194
:1017D000B0008F7D8093B00008951F93CF93DF9367
:1017E000282F30E0F901E750FD4F8491F901EB51CA
:1017F000FD4FD491F901EF52FD4FC491CC23C1F0BC
:10180000162F81110E94C40BEC2FF0E0EE0FFF1F8A
:10181000E35EFC4FA591B4919FB7F894111104C0F9
:101820008C91D095D82302C0EC91DE2BDC939FBF26
:10183000DF91CF911F910895CF93DF9390E0FC014A
:10184000EB51FD4F2491FC01EF52FD4F8491882311
:1018500061F190E0880F991FFC01ED5EFC4FC5918E
:10186000D491FC01E35EFC4FA591B491611109C0D4
:101870009FB7F8948881209582238883EC912E234A
:101880000BC0623061F49FB7F8948881322F309595
:1018900083238883EC912E2B2C939FBF06C08FB798
:1018A000F894E8812E2B28838FBFDF91CF91089584
:1018B0001F93CF93DF93182FEB0161E00E941C0C64
:1018C000209711F460E004C0CF3FD10539F461E006
:1018D000812FDF91CF911F910C94ED0BE12FF0E060
:1018E000E750FD4FE491E330F9F048F4E130B9F00E
:1018F000E230A1F584B5806284BDC8BD34C0E73054
:10190000E9F0E83019F1E43049F580918000806217
:1019100080938000D0938B00C0938A0024C084B54C
:10192000806884BDC7BD1FC080918000806880939F
:101930008000D0938900C093880015C08091B000CA
:1019400080688093B000C093B3000DC08091B00058
:1019500080628093B000C093B40005C0C038D10548
:101960000CF0B5CFAFCFDF91CF911F9108958E309E
:1019700008F08E508770806480937C0080917A009C
:10198000806480937A0080917A0086FDFCCF8091FC
:1019900078002091790090E0922B08953FB7F89459
:1019A00080912B0490912C04A0912D04B0912E04D1
:1019B00026B5A89B05C02F3F19F00196A11DB11DAA
:1019C0003FBFBA2FA92F982F8827820F911DA11DE5
:1019D000B11DBC01CD0142E0660F771F881F991F22
:1019E0004A95D1F708951F920F920FB60F921124C6
:1019F0002F933F938F939F93AF93BF9380919B01BE
:101A000090919C01A0919D01B0919E0130912A047A
:101A100023E0230F2D3720F40196A11DB11D05C031
:101A200026E8230F0296A11DB11D20932A0480935E
:101A30009B0190939C01A0939D01B0939E01809186
:101A40002B0490912C04A0912D04B0912E040196AA
:101A5000A11DB11D80932B0490932C04A0932D0401
:101A6000B0932E04BF91AF919F918F913F912F9191
:101A70000F900FBE0F901F901895789484B58260D8
:101A800084BD84B5816084BD85B5826085BD85B522
:101A9000816085BD80916E00816080936E001092A0
:101AA000810080918100826080938100809181001B
:101AB00081608093810080918000816080938000AC
:101AC0008091B10084608093B1008091B00081600A
:101AD0008093B00080917A00846080937A00809136
:101AE0007A00826080937A0080917A00816080938E
:101AF0007A0080917A00806880937A001092C10009
:101B000082E380931F0481E090E0A0E0B0E0809346
:101B10001A0490931B04A0931C04B0931D048FEF30
:101B200080930F049CE39093F8031092A303809397
:101B3000A40380E293E09093A6038093A50384ED31
:101B400093E09093A8038093A703D7E0D093CA03B0
:101B5000D093C9038CEA9DE09093BC038093BB03B0
:101B60008EED9DE09093BE038093BD0384E79EE0DD
:101B70009093C0038093BF038CE39FE09093C203D4
:101B80008093C103C1E0C0939F036FEF70E085E0D5
:101B90000E94580C88E08093A90389E08093AA03EF
:101BA000D093AB0386E08093AC0384E08093AD03D5
:101BB00082E08093AE0381E18093AF030E945906D7
:101BC0008BE08093FB038DE08093FA0380E18093A8
:101BD000FC038EE08093FE038FE08093FD03C093AF
:101BE000F503C0930D0410920E04C093F403EBE8C8
:101BF000F0E0E491EF5FE093F103ECE8F0E0E491D2
:101C0000EF5FE093F2038DE890E090930C048093F3
:101C10000B04CFB7F89480911F01811127C0EBED21
:101C2000F2E08491EFEEF2E09491E82FF0E0EE0F15
:101C3000FF1FED5EFC4FA591B491EC91E92321F4D7
:101C400061E08AE00E94ED0B61E08AE00E941C0CDA
:101C50008CB580618CBD8CB580648CBD61E08DE0FD
:101C60000E941C0C61E08BE00E941C0C80911F0103
:101C70008F5F80931F01CFBF8CB58F7D8CBD8CB5DE
:101C80008C7F81608CBD8DB581608DBD8CB58C6085
:101C90008CBD61E08091FB030E941C0C61E080918F
:101CA000FA030E941C0C61E08091FC030E941C0C52
:101CB0008091FE0318161CF461E00E941C0C8091B8
:101CC000FD0318161CF461E00E941C0C8091FE03B9
:101CD000181674F560E00E94ED0B0E94CE0C4B01CB
:101CE0005C010AE0C02ED12CE12CF12C0E94CE0C1C
:101CF000DC01CB0188199909AA09BB09883E9340E8
:101D0000A105B10598F321E0C21AD108E108F10854
:101D100088EE880E83E0981EA11CB11CC114D1046A
:101D2000E104F10419F761E08091FE030E94ED0BDC
:101D30008091FA03082E000C990BFC01EF52FD4F25
:101D4000E491F0E0EE0FFF1FE35EFC4F259134912C
:101D50003093020420930104FC01EB51FD4FE49108
:101D6000E09308048091FB03082E000C990BFC0102
:101D7000EF52FD4FE491F0E0EE0FFF1FE35EFC4FEA
:101D800025913491309300042093FF03FC01EB5123
:101D9000FD4FE491E09307048091FD03082E000CB1
:101DA000990BFC01EF52FD4FE491F0E0EE0FFF1FA5
:101DB000E35EFC4F25913491309304042093030497
:101DC000FC01EB51FD4FE491E09309048091FC0389
:101DD000082E000C990BFC01EF52FD4FE491F0E04E
:101DE000EE0FFF1FE35EFC4F259134913093060404
:101DF00020930504FC01EB51FD4FE491E0930A04AC
:101E000081E20E94FF0584E10E94FF058091F803B2
:101E100087FF03C08FE78093F8038091F803806801
:101E20000E94FF0580E20E94FF058CE00E94FF05F2
:101E30000E941E06C1E0C093C80384E08093EC03B7
:101E400087E890E09093D4038093D30360E080E030
:101E50000E94C20561E070E083E00E94580C80910E
:101E6000B100887F81608093B100F8941092800067
:101E700010928100109285001092840088E191E018
:101E8000909389008093880080918100886080937E
:101E900081008091810081608093810080916F003A
:101EA000826080936F007894C0931E0482E10E9448
:101EB000B70CBC01990F880B990B61157105810551
:101EC000910511F00E946F121092B70310921E0438
:101ED0001092980158E9A52E51E0B52E63E0E62E48
:101EE000C1E070E0872E70E0972EE3E02E2EFAE03E
:101EF0005F2EADE0CA2EA2E0DA2E0E94C306882330
:101F000009F4D6C180919801813009F403C138F0F9
:101F1000823009F4A1C1843009F4AEC1C9C18091F5
:101F20000F04882309F4F0C0C093F5031092F40362
:101F30001092F3031092B703C0930D04C0930E04E4
:101F400060E084EC93E00E9427051092C503D9EE6F
:101F50000E94C3068823E1F380911E04882309F4BC
:101F600040C08091100490911104A0911204B0918E
:101F700013044E97A105B105C1F460E084EC93E031
:101F80000E942705D092D203C092D1031092D703AA
:101F90001092D603C093C503F9E0F093DA031092D0
:101FA000DD031092DF031092E10380911004909101
:101FB0001104A0911204B091130483329105A1057C
:101FC000B10510F4DF5F04C0CC97A105B10548F45A
:101FD00025E232E04D2F69E18DEE93E00E94660A22
:101FE000B7CF63E872E08DEE93E00E94A406809183
:101FF000F103982F990F890F81958D5A8093F603DD
:102000008091F203982F990F890F8195835D8093BA
:10201000F7038091100484FF03C081E292E002C0C4
:102020008DE192E00E94AA0B8091F103982F990F05
:10203000890F81958D5A8093F6038091F7038F5F06
:102040008093F7038091C903882319F089E192E016
:1020500002C085E192E00E94AA0B8091B503813015
:10206000B1F48091C9038F5F6091CA0387FD09C0F5
:10207000082E000C990B70E06F5F7F4F0E94F712E3
:10208000682F6093C90384EC93E00E94AC058091B3
:10209000B4038130B9F020910F04822F90E0A0E0CA
:1020A000B0E04091100450911104609112047091BD
:1020B0001304481759076A077B0708F449CF2F3FD5
:1020C00009F446CF2FEF20930F0460E084EC93E0F7
:1020D0000E9427051092C50360E084EC93E00E9403
:1020E0002705D092D203C092D1031092D703109249
:1020F000D603C093C50389E08093DA031092DD0311
:102100001092DF031092E103D091B403D13009F0B3
:10211000CFC0D5C00E9404020E942302E0910101B9
:10212000EA3099F48091B003813039F08F3F39F073
:102130006E2D0E94EB12913011F4109201018091EA
:10214000B103813009F0C0C023C1F0E0E156FC4F7B
:1021500081898F3F09F40EC1809101018230C9F05D
:1021600028F4882331F0813061F030C0833071F57C
:102170001FC080910301882359F18150809303018E
:1021800027C080910401863018F1815080930401AA
:102190001FC02091030130910501822F90E0830F31
:1021A000911D84359105A4F42F5F2093030110C085
:1021B0002091040130910601822F90E0830F911D40
:1021C000C09734F42F5F2093040102C050920101A4
:1021D0000E94F80100E211E0F8018081853508F0E5
:1021E0001282F8019281913039F577247394780E38
:1021F000472C3180D82F781614F4D72D482E642C14
:102200006D1AF62C67FE03C0FF24F394F60CF594C8
:102210004D1664F0432D6D2F8DEE93E00E94DE028B
:10222000F7FE02C03A94F60CDF5FF2CF84EC93E045
:102230000E94AC05F80170820D5F1F4FA016B10619
:1022400059F680910701811102C020929801809176
:10225000B603813069F591C0F4E1F093F603F09391
:10226000F70360E972E08DEE93E00E94A40680918E
:10227000B6038130E9F485C080910301853560F0B3
:10228000809102018F5F80930201109203010E94EE
:10229000E901C09398010CC028E1209304018D5FEF
:1022A000809303010E9404020E9423020E94F8010D
:1022B0008114910409F421CE0E9400001ECE0E94D8
:1022C000E901D0939801F4CF8F3F31F06E2D0E9439
:1022D000EB12913009F45CC08091B203813039F087
:1022E0008F3F41F06E2D0E94EB12913019F492E075
:1022F000909301018091B303813039F08F3F39F021
:102300006E2D0E94EB12913011F420920101809108
:10231000B4038130D9F426C02F5F3F4F3396283263
:102320003105A1F082818111F7CFC901880F991F72
:10233000820F931FFC01E05EFE4F80910301865FD8
:102340008083809104018D5F8183C2838091B50376
:10235000813009F001CF95E090930101E4E0E09332
:102360009801FACE84E080930101E0E2F1E020E000
:1023700030E0D8CF50920101EFCEF2E0F093980117
:1023800002C08093980184EC93E00E94AC0590CF4A
:10239000C0930101A1CF1092F0031092EF0382E1EC
:1023A00091E09093EE038093ED0308958F929F92B6
:1023B000AF92BF92CF92DF92EF92FF92CF93DF93D3
:1023C000EC01688179818A819B81611571058105A4
:1023D000910521F464E279ED8BE597E02DE133EF8F
:1023E00041E050E00E94781249015A019B01AC0182
:1023F000A7EAB1E40E9497126B017C01ACEEB4EF46
:10240000A50194010E94A512DC01CB018C0D9D1D3C
:10241000AE1DBF1DB7FF03C00197A109B048888357
:102420009983AA83BB83BC01CD019F77DF91CF91B4
:10243000FF90EF90DF90CF90BF90AF909F908F90E4
:1024400008958F929F92AF92BF92CF92DF92EF92B8
:10245000FF9260910A0170910B0180910C019091A3
:102460000D01611571058105910521F464E279ED95
:102470008BE597E02DE133EF41E050E00E947812C8
:1024800049015A019B01AC01A7EAB1E40E949712ED
:102490006B017C01ACEEB4EFA50194010E94A51282
:1024A000DC01CB018C0D9D1DAE1DBF1DB7FF03C010
:1024B0000197A109B04880930A0190930B01A09362
:1024C0000C01B0930D01BC01CD019F77FF90EF90FF
:1024D000DF90CF90BF90AF909F908F9008956093C2
:1024E0000A0170930B0180930C0190930D010895E4
:1024F000052E97FB1EF400940E948F1257FD07D003
:102500000E94AA1207FC03D04EF40C948F1250952F
:102510004095309521953F4F4F4F5F4F08959095CF
:102520008095709561957F4F8F4F9F4F08950E94C2
:10253000CC12A59F900DB49F900DA49F800D911D6E
:1025400011240895B7FF0C9497120E949712821BD2
:10255000930B0895A1E21A2EAA1BBB1BFD010DC00F
:10256000AA1FBB1FEE1FFF1FA217B307E407F50743
:1025700020F0A21BB30BE40BF50B661F771F881F1F
:10258000991F1A9469F760957095809590959B01B5
:10259000AC01BD01CF010895A29FB001B39FC0015E
:1025A000A39F700D811D1124911DB29F700D811D7F
:1025B0001124911D0895DB018F939F930E94971220
:1025C000BF91AF91A29F800D911DA39F900DB29FCF
:1025D000900D11240895991B79E004C0991F961756
:1025E00008F0961B881F7A95C9F78095089597FB88
:1025F000072E16F4009407D077FD09D00E940B1324
:1026000007FC05D03EF4909581959F4F08957095F5
:1026100061957F4F0895AA1BBB1B51E107C0AA1FFC
:10262000BB1FA617B70710F0A61BB70B881F991F73
:102630005A95A9F780959095BC01CD010895EE0FAC
:10264000FF1F0590F491E02D099481E090E0F8944B
:102650000C943113DC0101C06D9341505040E0F700
:062660000895F894FFCF7D
:10266600010A0100180A070300000100000000002B
:0E26760000006603BF01F501F4010D0A00002B
:107E0000112484B714BE81FFF0D085E080938100F7
:107E100082E08093C00088E18093C10086E0809377
:107E2000C20080E18093C4008EE0C9D0259A86E02C
:107E300020E33CEF91E0309385002093840096BBD3
:107E4000B09BFECF1D9AA8958150A9F7CC24DD24C4
:107E500088248394B5E0AB2EA1E19A2EF3E0BF2EE7
:107E6000A2D0813461F49FD0082FAFD0023811F036
:107E7000013811F484E001C083E08DD089C08234E0
:107E800011F484E103C0853419F485E0A6D080C0E4
:107E9000853579F488D0E82EFF2485D0082F10E0AE
:107EA000102F00270E291F29000F111F8ED06801E7
:107EB0006FC0863521F484E090D080E0DECF843638
:107EC00009F040C070D06FD0082F6DD080E0C81688
:107ED00080E7D80618F4F601B7BEE895C0E0D1E017
:107EE00062D089930C17E1F7F0E0CF16F0E7DF06D8
:107EF00018F0F601B7BEE89568D007B600FCFDCFD4
:107F0000A601A0E0B1E02C9130E011968C91119780
:107F100090E0982F8827822B932B1296FA010C0160
:107F200087BEE89511244E5F5F4FF1E0A038BF0790
:107F300051F7F601A7BEE89507B600FCFDCF97BE46
:107F4000E89526C08437B1F42ED02DD0F82E2BD052
:107F50003CD0F601EF2C8F010F5F1F4F84911BD097
:107F6000EA94F801C1F70894C11CD11CFA94CF0C13
:107F7000D11C0EC0853739F428D08EE10CD085E9AC
:107F80000AD08FE07ACF813511F488E018D01DD067
:107F900080E101D065CF982F8091C00085FFFCCF94
:107FA0009093C60008958091C00087FFFCCF809118
:107FB000C00084FD01C0A8958091C6000895E0E648
:107FC000F0E098E1908380830895EDDF803219F02E
:107FD00088E0F5DFFFCF84E1DECF1F93182FE3DFCA
:107FE0001150E9F7F2DF1F91089580E0E8DFEE27F6
:047FF000FF270994CA
:027FFE00040479
:0400000300007E007B
:00000001FF
